:1000000057C2000071C200006FC200006DC2000044
:100010006BC2000069C2000067C2000065C2000038
:1000200063C2000061C2000057C300000C944A097B
:100030000C94F50959C2000057C2000056C20000D6
:1000400053C2000051C200004FC200004DC2000068
:100050004BC2000049C2000047C200000C947A1154
:100060000C94FA100C94DE103FC200003DC2000058
:100070003BC20000C60691060706910607067206F7
:100080004D0607063B0624064D6F756E74696E6754
:100090002053442064726976650D0A000D0A436896
:1000A000616E67696E6720746F2070726F6772612E
:1000B0006D6D6572206D6F64650D0A006368616E19
:1000C00067696E6720746F2072756E206D6F64654E
:1000D0000D0A00095809657869742070726F67729B
:1000E000616D6D6572206D6F646520616E64207254
:1000F000756E0D0A000957097772697465204650BC
:10010000474120636F6E66696775726174696F6ECF
:100110002066726F6D20534420636172640D0A0083
:100120000956097665726966792046504741206311
:100130006F6E66696775726174696F6E2061676161
:10014000696E737420534420636172640D0A000960
:1001500048097072696E7420746869732068656CF0
:1001600070206D6573736167650D0A000945096547
:1001700072617365204650474120636F6E66696700
:1001800075726174696F6E0D0A00436F6D6D616EFB
:1001900064733A0D0A003D3D3D3D3D3D3D3D3D3DD5
:1001A0003D3D3D3D3D3D3D3D3D3D3D3D0D0A0D0A45
:1001B000000D0A0D0A547572746C65204650474153
:1001C0002050726F6772616D6D65720D0A002E03AB
:1001D0004C005500460041002000550053004200ED
:1001E0002D00520053003200330032002000410045
:1001F0006400610070007400650072000000180364
:100200004400650061006E002000430061006D0045
:1002100065007200610000000403090409023E0049
:10022000020100C03209040000010202010005249D
:1002300000100104240206052406000107058203BC
:100240000800FF09040100020A000000070504027B
:1002500010000507058302100005120110010200BD
:100260000008EB034B2001000102DC01646F6E65A6
:100270000D0A0045726173696E6720666C61736870
:100280002E2E2E2000253032582000253034583AAA
:1002900020002530386C583A0D0A00706173736580
:1002A000640D0A006661696C65640D0A00426C6148
:1002B0006E6B20636865636B20002530386C583A9C
:1002C00020253032580D0A00256C64206B620D0029
:1002D000566572696679207061737365640D0A00F2
:1002E000566572696679206661696C656420776914
:1002F0007468202575206572726F72730D0A00256F
:1003000030386C583A2053443D25303258206366CB
:10031000673D253032580D0A00256C64206B620D54
:10032000004661696C656420746F207265616420A9
:10033000534420636172640D0A00636F6D706C65D5
:1003400074650D0A006661696C65640D0A000A46F1
:100350004C4153482070726F6772616D6D696E67B2
:100360002000256C64206B620D0009434D44313739
:10037000282558292072657475726E65642025647D
:100380000D0A00657272320D0A00657272310D0A33
:10039000005344206572726F720D0A004D4D437612
:1003A0003320636172642064657465637465640DF1
:1003B0000A00534476312063617264206465746579
:1003C000637465640D0A005344763220636172647D
:1003D0002064657465637465640D0A00434D4430A0
:1003E000206661696C6564200D0A004572726F7247
:1003F000202D2046525F4449534B5F4552520D0A0F
:10040000004572726F72202D2046525F4E4F545F2E
:100410004F50454E45440D0A004572726F72202DB3
:100420002046525F4E4F545F454E41424C45440D6D
:100430000A0053442063617264206D6F756E7465A9
:1004400064204F4B0D0A0046525F4E4F5F46494CA9
:100450004553595354454D0D0A0046525F44495384
:100460004B5F4552520D0A004E6F2076616C6964F5
:100470002046415420706172746974696F6E2069FE
:100480007320666F756E640D0A00666D74203D3DC5
:1004900020330D0A006469736B5F696E697469616A
:1004A0006C697A652829206661696C65640D0A00AB
:1004B00011241FBECFEFD4E0DEBFCDBF11E0A0E01E
:1004C000B1E0ECE7FCE302C005900D92A433B10764
:1004D000D9F722E0A4E3B1E001C01D92A032B20737
:1004E000E1F712D20C943C1E8BCD1F920F920FB6E7
:1004F0000F9211248F939F93B19A8091E601869574
:10050000837090E08130910509F49AC082309105A2
:1005100009F48EC0892B09F479C080E580BF8091F1
:10052000E6018F778093E60100B605FE05C0809155
:10053000E60180688093E60182E080939D000000E0
:10054000000000B605FE05C08091E601806880933A
:10055000E60183E080939D000000000000B605FCEA
:100560004FC084E080939D00000000008091E60170
:1005700087FD57C08091E60188618093E6018091F4
:10058000E70180FF36C08091D4019091D501892B7D
:1005900049F08091D4019091D50101979093D501B4
:1005A0008093D4018091F501882329F08091F50191
:1005B00081508093F5018091F401882329F0809186
:1005C000F40181508093F4018091E601869586952F
:1005D0008695837090E08230910509F447C083309E
:1005E000910509F465C0019709F454C02C9A109242
:1005F00034019F918F910F900FBE0F901F9018950F
:100600008091E60180688093E601ABCF4F9985CF5A
:10061000109235018091E601897F82608093E60126
:100620007CCF8091E601877E88608093E601A7CF2A
:100630004F9B73CF8091E601897F8093E6016DCF58
:10064000809135018F5F809335014F991DC08D30AA
:1006500008F463CF8091E60180648093E601809185
:10066000E601897F84608093E60157CF8091340151
:100670008F5F80933401843058F12C98809134013D
:10068000877080933401B5CF8C3008F78091E601F4
:100690008062E3CF809134018F5F80933401883092
:1006A000A8F02C98809134018F7080933401A1CFF1
:1006B000809134018F5F80933401823058F02C9800
:1006C0008091340183708093340193CF2C9AEACFC8
:1006D0002C9AD4CF2C9AF4CF1F920F920FB60F9270
:1006E00011242F938F939F932D982FEF81EE94E0F9
:1006F000215080409040E1F700C000002D9A82E038
:100700008BBB9F918F912F910F900FBE0F901F90D9
:100710001895811114C0109281008FEF86BB8091D3
:10072000E601897F8093E6018091E6018F7B8093CB
:10073000E6018091E6018F7D8093E6010895109295
:10074000800010928500109284008DE080938100DB
:100750008DE093E0909389008093880080916F00F2
:10076000826080936F00D9CF84B7877F84BF88E190
:100770000FB6F89480936000109260000FBE87EF70
:1007800084B917B888E08AB9469A2D9A279826988E
:1007900090E080E80FB6F894809361009093610038
:1007A0000FBE81E0B6DF67D580E00E949F1081E038
:1007B0000E940A1280E580BF81E080936C0082E095
:1007C00080936800089580E091E05AC380E091E052
:1007D0004BC46091E4017091E50181EB91E00E94CE
:1007E000CD1B6091E4017091E50186E991E00E94E2
:1007F000CD1B6091E4017091E5018AE891E00E94CF
:10080000CD1B6091E4017091E5018CE691E00E94BE
:10081000CD1B6091E4017091E5018FE491E00E94AD
:10082000CD1B6091E4017091E50180E291E00E94AE
:10083000CD1B6091E4017091E50185EF90E00E948D
:10084000CD1B6091E4017091E50183ED90E00C9483
:10085000CD1B9091E7019B7F9093E70190E00E9470
:10086000531B80359105E1F154F08735910561F016
:1008700088359105A1F08635910579F0AACF8534A8
:100880009105E1F70C9484100E94680D9091E701A6
:1008900080FB92F99093E70108950C94730E80E029
:1008A0000E941E1780E00E949F1081E00E940A12A1
:1008B0002FEF89E698E1215080409040E1F700C099
:1008C00000006091E4017091E5018CEB90E00E94E2
:1008D000CD1B8091E7018E7F8093E7012C980895CE
:1008E0000C94BC0F80E091E05BD3BBC5CF93DF934A
:1008F000EC01F8DF80E091E069D397FDFACF8883BF
:1009000081E0DF91CF910895CF93DF931F92CDB710
:10091000DEB72ADF86ED91E09093E5018093E40154
:10092000E6E7F1E02FB7F89486E391E091838083C6
:10093000938382839583848386E791E0978386837C
:1009400080E490E091878087138612862FBF66ED42
:1009500071E080E091E074D38091E7018E7F809315
:10096000E701789417C08091E60185FD84C08091ED
:10097000E60186FF05C08091E6018F7B8093E6014A
:100980000E94D710882309F43EC08091E70180FFC0
:1009900048C0A8DF8091E70180FDE5CF9091E60196
:1009A00095FFEECF9091E6019F7D9093E6018160E7
:1009B0008093E7016091E4017091E5018CE990E09A
:1009C0000E94CD1B8FDF80E00E940A1281E00E940E
:1009D0009F106091E4017091E50188E890E00E9429
:1009E000CD1B81E00E941E17F4DE7CDF8091E601C2
:1009F000877E8093E6018091E70180FDB4CF0E945D
:100A0000D7108111C2CF80E091E0E0D297FDBDCF39
:100A10002091E70120FF4CC01CDF8091E70180FDA1
:100A2000B8CF0E94B81190E0009709F4B2CF20919E
:100A300001012F702093E9002091E80020FFA9CF49
:100A40008031910510F08FE090E0F82E00E010E08A
:100A50000FC0CE0101960E94BB11882309F499CFE3
:100A6000698180E091E031D20F5F1F4F811191CFFA
:100A7000F012EFCF8ECF8091E6018F7D8093E6015B
:100A80008091E7018B7F8093E70188E590E00E94E9
:100A9000531B80359105C1F074F087359105C1F184
:100AA00088359105A1F08635910559F092DE5FCF2A
:100AB0000E9436116ACF85349105C1F70E948410D7
:100AC00056CF0E94730E53CF0E94BC0F50CF80E0D0
:100AD0000E941E1780E00E949F1081E00E940A126F
:100AE0002FEF89E698E1215080409040E1F700C067
:100AF00000006091E4017091E5018CEB90E00E94B0
:100B0000CD1B8091E7018E7F8093E7012C982FCF3A
:100B1000DFD79091E70180FB92F99093E70127CF0F
:100B2000292F33272230310529F12330310599F05F
:100B30002130310541F080E090E020E030E0FA0122
:100B400031832083089582E190E02AE532E0FA01C2
:100B500031832083089599278130910599F082305F
:100B60009105B1F0892B39F7E8E1F2E0849190E04A
:100B70009F01E5CF8EE390E02CE132E0FA01318372
:100B800020830895EEEFF1E0849190E09F01D7CFAC
:100B9000EEECF1E0849190E09F01D1CF1F93CF93D1
:100BA000DF93CDB7DEB7AA970FB6F894DEBF0FBEBE
:100BB000CDBF8091F1008093EC018091F100809392
:100BC000ED018091F1008093EE018091F10080931E
:100BD000EF018091F1008093F0018091F10080930A
:100BE000F1018091F1008093F2018091F1008093F6
:100BF000F301ECDD8091E80083FF09C03091EC0146
:100C00002091ED01822F90E08A309105C0F0809113
:100C1000E80083FF0AC08091E800877F8093E800A6
:100C20008091EB0080628093EB00AA960FB6F89457
:100C3000DEBF0FBECDBFDF91CF911F910895FC01A4
:100C4000E65CFF4F0C94C31A3111E1CF8091EE01A5
:100C50008230E8F69091E800977F9093E8008093C7
:100C6000E801A9D48091E801882309F4FBC084E05D
:100C70008EBBA9DDCCCF303851F68091E800877F5C
:100C80008093E8008091E8018093F1008091E80072
:100C90008E778093E8008FD4BACF3058323008F086
:100CA000B6CF8091EE019091EF018C3D23E0920749
:100CB00009F4A4C0AE014F5F5F4F6091F00130DFD7
:100CC000009709F4A4CF2091E800277F2093E80043
:100CD000BC0189819A81C7D58091E8008B77809388
:100CE000E80095CF311193CF1091EE011F778091DD
:100CF000E3008078812B8093E3008091E800877F78
:100D00008093E80058D48091E80080FFFCCF809168
:100D1000E30080688093E30011116DC082E08EBB18
:100D200076CF332309F453C0323009F070CF80916D
:100D3000EE01811122C03091F0013F7009F467CFBC
:100D40003093E9008091EB0080FF17C08091EB00A9
:100D5000233009F491C080618093EB0081E090E042
:100D600001C0880F3A95EAF78093EA001092EA00F2
:100D70008091EB0088608093EB001092E9008091F5
:100D8000E800877F8093E80016D441CF303859F1CE
:100D9000323809F03CCF8091F0018F708093E900E8
:100DA0009091EB0095FB992790F91092E9008091C2
:100DB000E800877F8093E8009093F1001092F100A3
:100DC0008091E8008E778093E800F5D320CF809162
:100DD000EE01813009F01BCF81E0233009F080E083
:100DE0008093EA01CACF9091E9018091EA018823BA
:100DF000F1F29260DCCF83E08EBB09CF83E08A837F
:100E00008AE289835FB7F894DE01139620E03EE022
:100E100041E207C090E0C7968D939D932F5F2431E8
:100E200081F0E32FF0E040935700849120FF03C04E
:100E300082958F703F5F8F708A3060F790E0C09628
:100E4000EBCF5FBF8091E800877F8093E8006AE284
:100E500070E0CE01019600D48091E8008B778093FA
:100E6000E800D5CE8091E30087FF03C084E08EBB0D
:100E700000CF81E08EBBFDCE80628093EB007DCF02
:100E8000CF93DF93EC01FC0170968BE0DF011D92A4
:100E90008A95E9F782E08C83898783E08E8761E019
:100EA000CE01019643D3811104C080E0DF91CF9140
:100EB000089561E0CE01069639D38823B1F361E04D
:100EC000CE010B96DF91CF9131C30F931F93CF9338
:100ED000DF931F92CDB7DEB72EB3243039F082E016
:100EE0000F90DF91CF911F910F910895FC0104891C
:100EF000158926893789012B022B032B81F38181E8
:100F00008F708093E9008091E80085FF04C06093B2
:100F1000F10080E0E5CF8091E8008E778093E800D3
:100F2000698368D36981882391F3DACFFB01682F45
:100F300084859585CADF21E030E0811102C020E080
:100F400030E088279927821B930B08952EB3243015
:100F500011F082E00895FC014489558966897789FA
:100F6000452B462B472BA9F381818F708093E90095
:100F70008091F200882349F09091E8008091E80088
:100F80008E778093E80095FF02C080E0089532D309
:100F90008111E0CF8091E8008E778093E800F5CF53
:100FA0002EB3243009F00895FC01448955896689DF
:100FB0007789452B462B472BB1F321812F70209346
:100FC000E9002091E80020FFEECFC0CF2EB32430FF
:100FD00019F5FC014489558966897789452B462B8B
:100FE000472BD1F086818F708093E9008091E800D3
:100FF00082FF12C08091F200882389F02091F100D5
:1010000030E08091F200811110C08091E8008B7770
:101010008093E800C90108958FEF9FEF08952FEFA7
:101020003FEF8091F200882381F3C9010895FC010C
:1010300084859585CBDF97FF08958EEF9FEF089508
:10104000FB012EE0DB011D922A95E9F723E02383C3
:1010500026E937E03187208727E138E03387228788
:1010600095878487089508950F931F93CF93DF93F7
:1010700000D0CDB7DEB72091E80023FF0AC0FC0105
:10108000208130E04091F0015091F1014217530767
:1010900039F00F900F90DF91CF911F910F9108952C
:1010A0002091ED01213209F457C0E0F0223209F419
:1010B0008EC0233271F72091EC01213251F720913B
:1010C000E800277F2093E80089839A8374D2609197
:1010D000EE0189819A810F900F90DF91CF911F913E
:1010E0000F91C1CF2032A9F62091EC01213289F66F
:1010F0002091E800277F2093E80003C02EB322232D
:1011000041F22091E80022FFF9CF5091F100409187
:10111000F1003091F1002091F100FC01548B458BDE
:10112000368B278B2091F100208F2091F100218FA9
:101130002091F100228F2091E8002B772093E80086
:1011400089839A8338D289819A810F900F90DF9199
:10115000CF911F910F9187CF2091EC01213A09F097
:1011600098CF2091E800277F2093E8002091E800A5
:1011700020FFFCCFFC01448955896689778940931B
:10118000F100052F162F272F33270093F1008B0135
:10119000222733270093F100472F5527662777270B
:1011A0004093F100208D2093F100218D2093F100D8
:1011B000828D8093F1008091E8008E778093E80023
:1011C0000F900F90DF91CF911F910F91F4C120915B
:1011D000EC01213209F05DCF2091E800277F2093B8
:1011E000E80089839A83E7D12091EE013091EF01E5
:1011F00089819A81FC01318B208B0F900F90DF91B8
:10120000CF911F910F912FCF3FD041D08091D80027
:101210008F778093D8008091D80080688093D80021
:101220008091D8008F7D8093D80019BC82E089BD61
:1012300009B400FEFDCF1EBA1092E8011092EA0137
:101240001092E90142E060E080E030D18091E1005D
:101250008E7F8093E1008091E20081608093E200C4
:101260008091E20088608093E2008091E0008E7FB0
:101270008093E0000895E3E6F0E080818E7F808334
:1012800081E08093EB01C0CF1092E20008951092AC
:10129000E10008951F920F920FB60F9211242F9321
:1012A0003F934F935F936F937F938F939F93AF93EE
:1012B000BF93EF93FF938091E10082FF04C0809180
:1012C000E20082FD81C08091E10080FF04C0809136
:1012D000E20080FD66C08091E10084FF26C080911D
:1012E000E20084FF22C019BC82E089BD09B400FE7F
:1012F000FDCF8091D8008F7D8093D8008091E10050
:101300008F7E8093E1008091E2008F7E8093E200E7
:101310008091E20081608093E2008091E80188235F
:1013200009F459C084E08EBB9BD08091E10083FF1B
:1013300004C08091E20083FD11C0FF91EF91BF9145
:10134000AF919F918F917F916F915F914F913F915D
:101350002F910F900FBE0F901F9018958091E10074
:10136000877F8093E10082E08EBB1092E80180913C
:10137000E1008E7F8093E1008091E2008E7F809378
:10138000E2008091E20080618093E20042E060E050
:1013900080E08CD08091F00088608093F00060D075
:1013A000CCCF8091E2008E7F8093E2008091E200BA
:1013B00080618093E2008091D80080628093D800A1
:1013C00019BC1EBA4DD087CF8091E1008B7F8093EE
:1013D000E10046D078CF8091E30087FF03C084E02E
:1013E0008EBBA2CF81E08EBB9FCF1F920F920FB614
:1013F0000F9211242F933F934F935F936F937F939B
:101400008F939F93AF93BF93CF93EF93FF93C0912D
:10141000E900CF708091EC001092E9008091F0001B
:10142000877F8093F0007894B9DB1092E900809177
:10143000F00088608093F000C093E900FF91EF9185
:10144000CF91BF91AF919F918F917F916F915F915C
:101450004F913F912F910F900FBE0F901F901895B5
:101460000895CF938EB38823A1F08091E9008F7007
:101470009091EC0090FD0FC090E0C92FC82B109206
:10148000E9009091E80093FD0FC08C2F8F7080933E
:10149000E900CF91089590E8C92FC82B1092E90078
:1014A0009091E80093FFF1CF79DBEFCF853098F58D
:1014B0008093E900982F242F762F50E021FF19C048
:1014C0003091EB003E7F3093EB003091ED003D7F9B
:1014D0003093ED003091EB0031603093EB0070936E
:1014E000EC002093ED005093F0002091EE0027FFD8
:1014F0001BC09F5F953079F09093E900891781F0C8
:101500007091EC002091ED005091F00021FDD8CFBA
:101510009F5F953089F78F708093E90081E008958F
:10152000242F762F50E0CACF80E008950F931F93A9
:10153000CF93DF93062F662379F1EC0110E09881B9
:10154000992331F12C81E981FA816B81892F8F7088
:10155000853058F5223030F146E056E0E930F105AB
:1015600060F028E030E040E04F5F220F331F2E177D
:101570003F07D0F34295407F452B991F9927991F2C
:101580006295660F660F607C692B90DF882369F097
:101590001F5F25961013D3CF81E0DF91CF911F916C
:1015A0000F91089542E052E0D9CF80E0DF91CF91D2
:1015B0001F910F9108958091EC0187FF04C010C026
:1015C0008EB3882349F08091E80080FFF9CF8091A5
:1015D000E8008E778093E80008958EB38823E1F3C6
:1015E0008091E80082FFF9CF8091E8008B778093AB
:1015F000E80008952091E4003091E50045E68091EF
:10160000EC0080FF1BC08091E80080FD1BC08EB302
:101610008823D1F08530D1F08091EB0085FD18C092
:101620008091E4009091E5002817390741F341507B
:1016300089F09C018091EC0080FDE5CF8091E8006D
:1016400082FFE5CF80E0089582E0089583E0089569
:1016500081E0089584E008952091F2013091F30132
:101660002617370758F06115710509F03FC0209122
:10167000E8002E772093E80020E030E0FC0180E0D5
:101680002115310521F581110FC02AC0853081F166
:101690008091E80083FD2EC08091E80082FD20C08B
:1016A0008091E80080FDB8C08EB38111EFCF82E059
:1016B00008958530E9F08091E80083FD1BC080919A
:1016C000E80082FD0DC08091E80080FD15C08EB35A
:1016D0008111EFCFECCF8EB3882349F3853041F0F1
:1016E0008091E80082FFF7CF80E008959B01C6CF8C
:1016F00083E0089581E008958091F20090E08830C1
:10170000910508F0AAC0DF014D914093F100B901A5
:1017100061507109AC014F5F5F4F6115710509F4AC
:1017200086C04830510509F47EC041814093F100E4
:10173000DF011296B90162507109AC014E5F5F4F33
:101740006115710509F473C04830510509F46BC087
:1017500042814093F100DF011396B9016350710992
:10176000AC014D5F5F4F6115710509F460C04830F1
:10177000510509F458C043814093F100DF011496EC
:10178000B90164507109AC014C5F5F4F611571057F
:1017900009F44DC04830510509F445C044814093D7
:1017A000F100DF011596B90165507109AC014B5F7D
:1017B0005F4F61157105D9F148305105A1F145819F
:1017C0004093F100DF011696B90166507109AC0132
:1017D0004A5F5F4F6115710551F14830510519F1AC
:1017E00046814093F100BF01695F7F4FA9014750D7
:1017F000510907964115510539F1079709F5878178
:101800008093F10038962850310981E09091E800EA
:101810009E779093E80034CF9091F20081E0983069
:10182000A9F380E0F3CFFD019B0181E0EFCF81E0E0
:101830004830510509F080E0FD0120E030E0E6CFBE
:10184000FB019A0181E0E2CF21E0089709F020E056
:10185000822FFB0120E030E0D9CF41E0089709F06A
:1018600040E0842FD3CF2091F2013091F30126176D
:10187000370758F06115710509F03FC02091E80065
:101880002E772093E80020E030E0AC0180E02115C5
:10189000310521F581110FC02AC0853081F1809179
:1018A000E80083FD2EC08091E80082FD20C0809179
:1018B000E80080FDAEC08EB38111EFCF82E00895C5
:1018C0008530E9F08091E80083FD1BC08091E8003D
:1018D00082FD0DC08091E80080FD15C08EB381119E
:1018E000EFCFECCF8EB3882349F3853041F0809160
:1018F000E80082FFF7CF80E008959B01C6CF83E028
:10190000089581E008958091F20090E0883091057B
:1019100008F09DC0FA0164916093F1003196D901FD
:101920001197BC016F5F7F4F109709F47DC068303D
:10193000710509F475C0E491E093F100FA01329663
:10194000D9011297BC016E5F7F4F109709F46CC0EC
:101950006830710509F464C0E491E093F100FA0184
:101960003396D9011397BC016D5F7F4F109709F42F
:101970005BC06830710509F453C0E491E093F10055
:10198000FA013496D9011497BC016C5F7F4F109710
:1019900009F44AC06830710509F442C0E491E0934B
:1019A000F100FA013596D9011597BC016B5F7F4FA5
:1019B000109709F439C06830710591F1E491E09312
:1019C000F100FA013696D9011697BC016A5F7F4F84
:1019D000109751F16830710519F1E491E093F1002D
:1019E000FA013796B90167507109079661157105BB
:1019F00041F1079711F5E491E093F100485F5F4FE3
:101A00002850310981E09091E8009E779093E8009A
:101A10003ECF9091F20081E09830A9F380E0F3CFBF
:101A2000AF019D0181E0EFCF81E06830710509F0E1
:101A300080E0AF0120E030E0E6CFAF019B0181E024
:101A4000E2CF21E0089709F020E0822FF2CF61E099
:101A5000089709F060E0862FD6CF82E08EBD0DB4E6
:101A600007FEFDCF8EB508951EBC0DB407FEFDCF59
:101A70008EB508958EBD0DB407FEFDCF8EB50895C9
:101A80002F9885E0F7DFF0DF80FDFBCF2F9A0895D8
:101A90001F93CF93DF9300D0CDB7DEB7182F2F98C9
:101AA00083E06A837983E6DF812FE4DF7981872F02
:101AB000E1DF6A81862FDEDF80E00F900F90DF91FB
:101AC000CF911F9108952F9886E0D4DF2F9A089523
:101AD0002F923F924F925F926F927F928F929F923E
:101AE000AF92BF92CF92DF92EF92FF920F931F932C
:101AF000CF93DF93CDB7DEB7C450D1400FB6F89483
:101B0000DEBF0FBECDBF89E291E00E94CE18182F34
:101B10008111D8C0C12CD12C7601812C912C54017B
:101B2000212C38E2332E412C512CAE014F5F5E4FF9
:101B300060E071E0CE0101960E944719CC5FDE4F54
:101B40008883C450D140CF5FDE4F88819981C150D6
:101B5000D1408115914009F4A2C0A1E0CD5FDE4FD4
:101B6000A883C350D1402E9A8BDFADDF2F9875DF4D
:101B70008E2D80DF8D2D7EDF77DFCF5FDE4F88817A
:101B80009981C150D140892BA9F08E010F5F1F4F61
:101B9000612C712CF80181918F016CDFFFEF6F1ABE
:101BA0007F0ACF5FDE4F88819981C150D14068168E
:101BB000790680F32F9ACF5FDE4F88819981C150DB
:101BC000D140880E991EA11CB11CC501B401A2010F
:101BD00091010E94A11A672B682B692B09F440C060
:101BE0000E9472049FEFD91AE90AF90ACD5FDE4F0D
:101BF000A881C350D140AA2309F497CFCC5FDE4F10
:101C00001881C450D1406091E4017091E5018EE4E7
:101C100093E00E94CD1B11115DC06091E4017091B1
:101C2000E5018AE393E00E94CD1B812FCC5FDE4F5C
:101C30000FB6F894DEBF0FBECDBFDF91CF911F91DD
:101C40000F91FF90EF90DF90CF90BF90AF909F905B
:101C50008F907F906F905F904F903F902F9008955E
:101C6000D501C4012AE0B695A795979587952A9541
:101C7000D1F7BF93AF939F938F93A2E6B3E0BF9347
:101C8000AF938091E5018F938091E4018F930E943F
:101C90005B1B0FB6F894DEBF0FBECDBFA1CF81E0B6
:101CA000CD5FDE4F8883C350D140CC5FDE4F98813B
:101CB000C450D140911157CFCD5FDE4F1882C35031
:101CC000D14051CF6091E4017091E5018EE493E041
:101CD0000E94CD1B6091E4017091E50185E493E0E1
:101CE0000E94CD1BA2CF3F924F925F926F927F9244
:101CF0008F929F92AF92BF92CF92DF92EF92FF921C
:101D00000F931F93CF93DF93CDB7DEB7C750D1406A
:101D10000FB6F894DEBF0FBECDBF89E291E00E94FE
:101D2000CE18811120C1412C512C3201CD5FDE4FE4
:101D3000188219821A821B82C350D1405FEF852E10
:101D400052E0952ECD5FDE4F688179818A819B813B
:101D5000C350D14020E038E240E050E00E94A11A98
:101D6000672B682B692B09F4BFC00E947204AE0177
:101D70004F5F5E4F60E071E0CE0101960E9447190F
:101D8000CF5FDE4F28813981C150D1403324339455
:101D90002115314009F4CDC02E9ACD5FDE4F688108
:101DA00079818A819B81C350D14072DECF5FDE4F43
:101DB00088819981C150D140892B09F456C08E0188
:101DC0000F5F1F4FCD5FDE4FC880D980EA80FB8058
:101DD000C350D140A12CB12C13C0FFEFAF1ABF0AE2
:101DE0000F5F1F4F8FEFC81AD80AE80AF80ACF5FB3
:101DF000DE4F88819981C150D140A816B906A8F557
:101E000033DED8019C91981741F3BFEF4B1A5B0A60
:101E10006B0A7B0AEEE14E16510461047104E8F688
:101E2000C95FDE4F8883C750D140BCD11F92C95FC4
:101E3000DE4F8881C750D1408F93D8018C911F927B
:101E40008F93FF92EF92DF92CF929F928F92809129
:101E5000E5018F938091E4018F930E945B1B0FB685
:101E6000F894DEBF0FBECDBFB8CFFEDD2F9ACD5F99
:101E7000DE4F88819981AA81BB81C350D1409F5F89
:101E8000AF4FBF4FCD5FDE4F88839983AA83BB835B
:101E9000C350D140332009F455CF4114510461049B
:101EA000710409F04AC06091E4017091E50180ED90
:101EB00092E00E94CD1BC95FDE4F0FB6F894DEBFE3
:101EC0000FBECDBFDF91CF911F910F91FF90EF908B
:101ED000DF90CF90BF90AF909F908F907F906F904A
:101EE0005F904F903F900895CD5FDE4F888199813C
:101EF000AA81BB81C350D1404AE0B695A79597957A
:101F000087954A95D1F7BF93AF939F938F93A9E19C
:101F1000B3E0BF93AF938091E5018F938091E4018B
:101F20008F930E945B1B0FB6F894DEBF0FBECDBF30
:101F30001CCF811131CF312C2FCF7F926F925F92C6
:101F40004F9280EE92E09F938F938091E5018F9363
:101F50008091E4018F930E945B1B0FB6F894DEBF63
:101F60000FBECDBFA8CF6091E4017091E50181E281
:101F700093E00E94CD1B9FCF5F926F927F928F92D2
:101F80009F92AF92BF92CF92DF92EF92FF920F9308
:101F90001F93CF93DF93CDB7DEB763970FB6F89457
:101FA000DEBF0FBECDBFCE0101960E947604C98070
:101FB000D12C80E3C81AD108EE24D7FCE094FE2C83
:101FC000FE2CED2CDC2CCC248DE0898B8AE08A8BD6
:101FD0001B8AC701B6015CDDFF92EF92DF92CF92C0
:101FE00082E992E09F938F938091E5018F93809196
:101FF000E4018F930E945B1B0FB6F894DEBF0FBE07
:10200000CDBFA12CB12C8E010F5E1F4FABE88A2EE5
:10201000A2E09A2EB5E8CB2EB2E0DB2EC501829568
:102020009295907F9827807F98279F938F939F9278
:102030008F928091E5018F938091E4018F930E94AC
:102040005B1BCE0101967C010F900F900F900F90BB
:102050000F900F9007C08EE2F70181937F01E01788
:10206000F10711F101DD582E682E712C1F928F930C
:10207000DF92CF928091E5018F938091E4018F935D
:102080000E945B1BC3010E944D1B0F900F900F908D
:102090000F900F900F90892BF1F2852DF70181930E
:1020A0007F01E017F107F1F66091E4017091E5011D
:1020B00089E090E00E94731B6091E4017091E5015A
:1020C000CE0101960E94A51BFFEFAF1ABF0A80E167
:1020D000A816B10409F0A2CFC7DC2F9A63960FB6F9
:1020E000F894DEBF0FBECDBFDF91CF911F910F914E
:1020F000FF90EF90DF90CF90BF90AF909F908F9028
:102100007F906F905F9008956091E4017091E50178
:1021100083E792E00E94CD1B0E947204D4DC2F98CA
:1021200087ECA8DC2F9AACDC6091E4017091E501AA
:102130008CE692E00E94CD1B2F982F9A0895811172
:1021400008C01CBC84B1897F84B9269827982D9A31
:1021500008952D9884B1866084B9279A2F9A269A7B
:102160002E9A81E08DBD80E58CBD0895E9ECF0E00C
:1021700080818F778083A8ECB0E08C9180648C9311
:102180008091CE008081806880831092D0018CEA9B
:1021900091E09093CF018093CE019093CD018093F5
:1021A000CC0108958091AA018111FCCF08959091EE
:1021B000A90181E09F3108F480E008951F920F92F9
:1021C0000FB60F9211248F93EF93FF93E9ECF0E099
:1021D00080818F7B8083E8ECF0E080818064808365
:1021E0001092AA01FF91EF918F910F900FBE0F9067
:1021F0001F9018951F920F920FB60F9211248F9374
:102200009F93EF93FF938091A9018823E1F0E091E0
:10221000A701F091A80181918093CE00F093A801CD
:10222000E093A701E55AF140D1F08091A9018150D6
:102230008093A901FF91EF919F918F910F900FBE15
:102240000F901F9018958091C9008F7D8093C900D1
:102250008091C90080648093C9002C98EBCF85E8F9
:1022600091E09093A8018093A701DFCF9091A901FD
:102270009F3190F591E09093AA019091C9009F7DC4
:102280009093C9009091A901903208F5E091A501C1
:10229000F091A6018083E091A501F091A601CF0104
:1022A00001969093A6018093A501855A9140A9F0CB
:1022B0008091A9018F5F8093A9019091A9018091DC
:1022C000AB01891720F48091A9018093AB01809123
:1022D000C90080628093C900089585E891E09283E7
:1022E0008183E6CF9091A9019F31E0F7BFDF80E0C5
:1022F00090E008951F920F920FB60F9211242F9322
:102300008F939F93EF93FF938091C80080938401F4
:102310009091CE00909383018871D9F48091D0017F
:102320008032B9F0E091CC01F091CD019083E09141
:10233000CC01F091CD01CF0101969093CD01809316
:10234000CC018C5C914079F08091D0018F5F8093BB
:10235000D001FF91EF919F918F912F910F900FBE20
:102360000F901F9018958CEA91E092838183ECCFB7
:102370008091D00108952091D0012223E1F3209192
:10238000C9002F772093C900E091CE01F091CF01D1
:102390002081FC0120838091CE019091CF01019694
:1023A000F1E08C3C9F0781F09093CF018093CE01A8
:1023B0008091D00181508093D0018091C9008068C4
:1023C0008093C90081E008958CEA91E0EDCFCF932E
:1023D000DF931F92CDB7DEB7CE010196CCDF882305
:1023E00031F0898190E00F90DF91CF9108958FEFC8
:1023F0009FEFF9CFBBDE85E891E09093A801809331
:10240000A7019093A6018093A5011092A9011092B3
:10241000AA010895109282011092C9001092C8007A
:102420001092CA00529A811101C00895529882E018
:102430008093C80089E190E09093CD008093CC0018
:1024400088E98093C90086E08093CA00D3CF8EBD0F
:1024500082E08093F50103C00DB407FC04C08091B5
:10246000F5018111F9CF8EB508958FEF8EBD82E011
:102470008093F50103C00DB407FC04C08091F50101
:102480008111F9CF8EB50895EF92FF920F931F93AC
:10249000CF93DF93D82F142F052FF62EE72E87FD2D
:1024A00049C0C0E02E9AE1DF2E98DFDF92E09093E2
:1024B000F40103C0DADF8F3F21F09091F4019923FA
:1024C000C9F39091F401911110C06091E4017091F1
:1024D000E50183E893E00E94CD1B8FEFDF91CF9160
:1024E0001F910F91FF90EF9008958D2F8064AFDFC3
:1024F0008E2DADDF8F2DABDF802FA9DF812FA7DFE2
:10250000DD2391F1D83099F587E8A1DF84E180934C
:10251000F40104C0AADFC82F87FF04C08091F40132
:102520008111F8CF8C2FDF91CF911F910F91FF90E8
:10253000EF90089540E050E0BA0187E3A5DFC82F8F
:10254000823010F4DF77AECF6091E4017091E50145
:102550008AE893E00E94CD1B8C2FDF91CF911F91D1
:102560000F91FF90EF90089585E971DFCFCF7DDF68
:10257000CDCFEF92FF920F931F93CF93DF9300D0B5
:1025800000D0CDB7DEB7FCB482E58CBD2E9A08EC46
:1025900010E06BDF0150110901151105D1F72E98DC
:1025A000FCBC82E08093F50140E050E0BA0180E09D
:1025B0006BDF813021F140E050E0BA0180E064DF60
:1025C0008130E9F06091E4017091E5018CED93E0D8
:1025D0000E94CD1B6091E4017091E50181E993E0D7
:1025E0000E94CD1B81E02E9A0F900F900F900F90BC
:1025F000DF91CF911F910F91FF90EF90089512E01E
:102600001093F5014AEA51E060E070E088E03CDFB9
:102610008983813029F140E050E0BA0189EA34DF52
:10262000823008F464C081E08093D3016091E401BA
:102630007091E5018CE993E00E94CD1B11E084E1EB
:102640008093F40104C09091F401992319F240E0C1
:1026500050E0BA01812F18DF8111F5CF80E0C3CFA0
:102660007E0185E0E80EF11C8E010F5F1F4FFDDE3D
:10267000F80181938F01EE15FF05C9F78B81813039
:1026800009F0A8CF8C818A3A09F0A4CF6091E401C7
:102690007091E50187EC93E00E94CD1B84E180936B
:1026A000F40104C08091F401882369F140E050E016
:1026B00060E070E489EAE8DE8111F4CF40E050E0A8
:1026C000BA018AE3E1DE811185CF8E010F5F1F4FD2
:1026D000CCDEF80181938F01EE16FF06C9F78981E0
:1026E00086FF19C08CE08093D30180E07CCF1093EB
:1026F000D3016091E4017091E50182EB93E00E94C7
:10270000CD1B19EA9CCF6091E4017091E50184E64C
:1027100090E0E9D75FCF84E0E6CFAF92BF92CF924F
:10272000DF92EF92FF920F931F93CF93DF935C01A1
:102730006A017B01E9018091D30183FD07C089E033
:10274000CC0CDD1CEE1CFF1C8A95D1F7B701A6014D
:1027500081E19ADE811142C082E08093F40104C0DD
:102760008091F4018823C1F180DE8E3FC9F7E12C0E
:10277000F12C209741F079DE9FEFE91AF90AEC1667
:10278000FD06C9F77E010C0F1D1FE016F10608F0CB
:1027900040C0E5016ADE89938FEFE81AF80AE01677
:1027A000F106C0F3011592E0190738F45EDE0F5F01
:1027B0001F4F011582E01807C9F7C0E02E9A55DEB9
:1027C0008C2FDF91CF911F910F91FF90EF90DF90B1
:1027D000CF90BF90AF900895C1E0F0CF1F928F933C
:1027E000FF92EF92DF92CF928AE693E09F938F93CE
:1027F0008091E5018F938091E4018F935CD78DB731
:102800009EB70A960FB6F8949EBF0FBE8DBFC1E06B
:10281000D5CF8701C7CF8F929F92AF92BF92CF92B1
:10282000DF92EF92FF926250710981099109C09085
:10283000FC01D090FD01E090FE01F090FF0122E04C
:10284000C21AD108E108F1086C157D058E059F05B7
:10285000E8F42091F80130E040E050E09CD64901D6
:102860005A01609108027091090280910A029091C8
:102870000B02680D791D8A1D9B1DFF90EF90DF9064
:10288000CF90BF90AF909F908F90089560E070E0E0
:10289000CB01F3CF0F931F93CF93DF93EC011982FA
:1028A00018826C817D818E819F81613071058105E7
:1028B000910519F10091FC011091FD012091FE019B
:1028C0003091FF016017710782079307B0F461151B
:1028D000710581059105B9F48091F601833011F1FC
:1028E000188619861A861B8660910402709105026B
:1028F00080910602909107020BC081E0DF91CF9199
:102900001F910F910895688779878A879B8783DF56
:102910006C877D878E879F8780E0DF91CF911F91A5
:102920000F91089560910402709105028091060252
:1029300090910702688779878A879B87611571055F
:102940008105910589F2E3CFCF92DF92EF92FF925A
:102950000F931F93CF93DF93EC016A017B0102E099
:1029600010E02EEF31E0D9DE882351F083E0DF91D3
:10297000CF911F910F91FF90EF90DF90CF9008952E
:10298000898190E0982F88272881822B85359A4A63
:1029900011F082E0ECCF02E010E026E330E0B70176
:1029A000A601CE01BADE8111E1CF898190E0982F96
:1029B00088272881822B8634914491F022E530E0EB
:1029C000B701A601CE01A9DE8111D0CF298130E067
:1029D000322F22278881282B81E02634314439F692
:1029E00080E0C5CF0F931F93CF93DF9300D000D02B
:1029F000CDB7DEB7623071058105910508F44FC08F
:102A00000091FC011091FD012091FE013091FF0128
:102A1000601771078207930708F041C02091F60103
:102A2000223009F449C02330D1F59B012F77332799
:102A3000220F331F220F331FAB01BC01F7E0769545
:102A4000679557954795FA95D1F780910002909137
:102A50000102A0910202B0910302480F591F6A1FA0
:102A60007B1F04E010E0CE01019657DE811117C0F4
:102A70002C816B81862F90E0A0E0B0E0772766275D
:102A8000922B2981622B0A8110E0102F002720E071
:102A900030E0602B712B822B932B9F7004C061E080
:102AA00070E080E090E00F900F900F900F90DF911A
:102AB000CF911F910F9108959B013327220F331F50
:102AC000472F582F692F772780910002909101029C
:102AD000A0910202B0910302480F591F6A1F7B1F89
:102AE00002E010E0CE01019618DE8111D8CF6A8194
:102AF00070E0762F66278981682B80E090E0D3CF45
:102B0000CF92DF92EF92FF920F931F93CF93DF93B9
:102B10008C01FC01C081D181219651F483E0DF91C9
:102B2000CF911F910F91FF90EF90DF90CF9008957C
:102B3000FC014485558566857785411551056105FC
:102B4000710561F3CE018F709927892B09F040C080
:102B50004F5F5F4F6F4F7F4F4487558766877787FB
:102B60006085718582859385611571058105910563
:102B7000A1F12091F80130E021503109AE015295C8
:102B800042954F7045275F70452724233523232B1B
:102B9000F9F428DF623071058105910538F1C090A4
:102BA000FC01D090FD01E090FE01F090FF016C155A
:102BB0007D058E059F0508F0B1CFF801608771870C
:102BC0008287938728DEF8016487758786879787D1
:102BD000F801D183C08380E0A2CF8091FA01909167
:102BE000FB01C817D90708F099CFF2CF81E097CF42
:102BF0004F925F926F927F92AF92BF92CF92DF928D
:102C0000EF92FF920F931F93CF93DF93EC016B0131
:102C10007A01DA012C91203249F4CA010196FC01B3
:102C200001C001967C0121912032D9F32F3209F4A1
:102C3000F1C01C821D821E821F82F70180818132B9
:102C400008F4ECC0EA81FB8150E2B52EB082B1827B
:102C5000B282B382B482B582B682B782B086B186C0
:102C6000B28690E080E038E021E0280FD701A80F7D
:102C7000B11D8C91813208F4CBC08F3289F08E3235
:102C800009F4D5C0931760F44FE9480F4A3108F4AE
:102C90008052DF01A90FB11D8C939F5F822FE4CF7B
:102CA00080E0E20EF11C8387CE01F4DDA82E8111B5
:102CB000A4C0288139812F703327220F331F22951A
:102CC0003295307F3227207F32274C855D856E8597
:102CD0007F8500E210E0C60120DD882391F0AA2460
:102CE000A3948A2DDF91CF911F910F91FF90EF90C8
:102CF000DF90CF90BF90AF907F906F905F904F909C
:102D00000895F6012081222309F47AC0438543FD0A
:102D10006EC0EA81FB8130E0808190E0281739079E
:102D200009F065C0D60111969C9111978181981385
:102D30005EC012969C9112978281981358C0139688
:102D40009C9113978381981352C014969C91149769
:102D5000848198134CC015969C9115978581981382
:102D600046C016969C9116978681981340C0179678
:102D70009C911797878198133AC018969C91189741
:102D80008085981334C019969C9119978185981362
:102D90002EC01A969C918285981329C08385811133
:102DA000A0CF44FF32C0D60155968C91559790E044
:102DB000982F882754962C91822BA0E0B0E03C01FC
:102DC00055244424D6015B964C915B9750E0542FD8
:102DD00044275A962C91422B60E070E0442A552AF1
:102DE000662A772A4C825D826E827F822FCFCE0147
:102DF00087DE882309F45DCFA82EB3E0AB1271CF34
:102E0000EA81FB81838581110FC0F4E0AF2E69CF89
:102E100081E047CFBFEFEB1AFB0A0BCFCE013ADDC3
:102E2000A82ED6011C925DCF93E0A92E5ACF383040
:102E300009F036CF98E03BE0822F16CF4F925F9299
:102E40006F927F928F929F92AF92BF92CF92DF92BA
:102E5000EF92FF920F931F93CF93DF93CDB7DEB71F
:102E6000A8970FB6F894DEBF0FBECDBF9091E701D3
:102E70009D7F9093E7011092F901811118C080E0C5
:102E8000A8960FB6F894DEBF0FBECDBFDF91CF91ED
:102E90001F910F91FF90EF90DF90CF90BF90AF9078
:102EA0009F908F907F906F905F904F90089561DB1F
:102EB00080FF09C06091E4017091E50185E994E02B
:102EC0006CD482E0DDCF40E050E0BA01CE01019643
:102ED0003BDD813009F40AC1812C912C54018330EF
:102EE00009F438C1882349F06091E4017091E5014B
:102EF00088E694E052D487E0C3CF04E210E02DE0EE
:102F000030E0B501A401CE01019607DC81113DC17D
:102F10006B8570E0762F66278A85682B80E090E0CD
:102F20006115710581059105A9F42B8D6A8D862F98
:102F300090E0A0E0B0E077276627922B288D622BE7
:102F4000098D10E0102F002720E030E0602B712B5E
:102F5000822B932B2C8130E040E050E01CD36901A0
:102F60007A014B80512C542C44248A81482A612CAC
:102F7000712C840C951CA61CB71C809200029092A8
:102F80000102A0920202B0920302E981E093F801EB
:102F90008E8190E0982F88272D81822B9093FB01C2
:102FA0008093FA01688570E0762F66272F81622B67
:102FB000AB0160E070E04115510561057105B1F4A8
:102FC0002F894E8950E060E070E0BA015527442710
:102FD000722B2C89422B2D8930E0322F2227890138
:102FE00020E030E0402B512B622B732B9295829581
:102FF0008F7089279F7089278C0120E030E00DA316
:103000001EA32FA338A7CB01BA016419750986093D
:1030100097096C197D098E099F09601B710B820B42
:10302000930B2E2F30E040E050E08BD22E5F3F4FCD
:103030004F4F5F4F2093FC013093FD014093FE0101
:103040005093FF01273F1FE031074105510508F468
:1030500078C0273F3F4F4105510508F484C083E005
:103060008093F6012BA18AA190E0A0E0B0E0DC0102
:1030700099278827B22B28A1822B49A150E0542FF1
:10308000442760E070E0842B952BA62BB72B809310
:10309000040290930502A0930602B09307020DA1CB
:1030A0001EA12FA138A5800E911EA21EB31E8C0C4E
:1030B0009D1CAE1CBF1C8092080290920902A09237
:1030C0000A02B0920B021092F70181E08093F9019D
:1030D0006091E4017091E50182E394E05ED3809118
:1030E000E70182608093E70180E0CACE00E110E052
:1030F0002EEB31E040E050E0BA01CE0101960DDB4D
:10310000811128C08D81882309F4EECE8C858B84B3
:10311000912CA12CB12C540199248824B82A89859A
:10312000882A8A8590E0982F8827A0E0B0E0882A36
:10313000992AAA2ABB2AB501A401CE01019604DC72
:10314000CECE6091E4017091E50187E494E025D34F
:1031500087E096CE6091E4017091E5018AE894E001
:103160001CD381E08DCE82E08093F601D701C601A9
:10317000880D991DAA1DBB1D809304029093050222
:10318000A0930602B09307028ACF6091E401709188
:10319000E5018AE594E001D381E072CECF93DF931D
:1031A000CDB7DEB7EC970FB6F894DEBF0FBECDBF3C
:1031B0002091F90121110AC086E0EC960FB6F8942F
:1031C000DEBF0FBECDBFDF91CF9108951092F70102
:1031D0009E012F5C3F4F3CA32BA3AC01BE016F5F50
:1031E0007F4FCE01819604DD8111E7CF8981811166
:1031F00002C083E0E2CF8C8584FDFBCF8E8990E016
:10320000982F88272D89822BA0E0B0E0DC01992738
:1032100088274C8D50E0542F44272B8D422B60E0A3
:1032200070E0842B952BA62BB72B809314029093E0
:103230001502A0931602B093170228A18F8D90E07B
:10324000A0E0B0E0DC0199278827B22B2D8D822BDE
:103250004E8D50E0542F442760E070E0842B952B76
:10326000A62BB72B8093100290931102A093120209
:10327000B093130210920C0210920D0210920E02E3
:1032800010920F0281E08093F70180E096CF6F9259
:103290007F928F929F92AF92BF92CF92DF92EF92E6
:1032A000FF920F931F93CF93DF933C016B015A0161
:1032B000FA01118210828091F901882309F41FC15B
:1032C0008091F70180FF8EC080910C0290910D02D9
:1032D000A0910E02B0910F02409110025091110284
:1032E0006091120270911302481B590B6A0B7B0B01
:1032F000860120E030E0401751076207730708F4A9
:1033000011C1C114D10409F40FC17301812CF2E081
:103310009F2EAC01BD01517066277727452B462BA8
:10332000472B09F496C040911C0250911D026091F8
:103330001E0270911F029C013170E401C21BD30B6D
:10334000CC16DD0608F4E60161147104D1F47AC0EC
:103350006091E4017091E50182E790E0C4D1809131
:103360000C0290910D02A0910E02B0910F024091BB
:103370001C0250911D0260911E0270911F029C015F
:1033800031708E01C701C9D98111E2CF80910C0241
:1033900090910D02A0910E02B0910F028C0F9D1F13
:1033A000A11DB11D80930C0290930D02A0930E02FB
:1033B000B0930F02EC0EFD1ECC1ADD0AF5018081E0
:1033C00091818C0F9D1F91838083C114D10409F4D6
:1033D000ABC080910C0290910D02A0910E02B091B1
:1033E0000F0297CF6091E4017091E50181E094E0D4
:1033F000D4D185E0DF91CF911F910F91FF90EF9095
:10340000DF90CF90BF90AF909F908F907F906F9004
:1034100008956091E4017091E50182E790E063D145
:1034200080910C0290910D02A0910E02B0910F02BA
:1034300040911C0250911D0260911E0270911F026A
:103440009C0131708E0180E090E067D98111E1CF5D
:103450009DCFC091F801C150AC01BD01E9E0769566
:10346000679557954795EA95D1F7C42359F140914F
:1034700018023091190220911A0290911B02642FB8
:10348000732F822FC8D9611571058105910509F443
:103490004DC08B019C010C0F111D211D311D00938E
:1034A0001C0210931D0220931E0230931F02809174
:1034B0000C0290910D02A0910E02B0910F02A80192
:1034C000B90139CF892B8A2B8B2B11F5609114020E
:1034D0007091150280911602909117026230710569
:1034E0008105910518F16093180270931902809379
:1034F0001A0290931B02462F372F282FC0CF6091BE
:10350000E4017091E50189E194E047D186E072CF52
:10351000609118027091190280911A0290911B0219
:1035200061DADCCF6A01EDCE80E064CF1092F70162
:103530006091E4017091E5018BEE93E02ED181E082
:1035400059CFA1E21A2EAA1BBB1BFD010DC0AA1F59
:10355000BB1FEE1FFF1FA217B307E407F50720F0FC
:10356000A21BB30BE40BF50B661F771F881F991F77
:103570001A9469F760957095809590959B01AC01C0
:10358000BD01CF010895EE0FFF1F0590F491E02DCE
:10359000099468940013E894A0E0B0E0E1EDFAE14A
:1035A0001DC0EFEFE7F959016A015E23550FEE08E0
:1035B000FE2C87019B01AC019E23990F660B762F91
:1035C000CB013BD0CDB7DEB7EAE024C02F923F92CB
:1035D0004F925F926F927F928F929F92AF92BF9223
:1035E000CF92DF92EF92FF920F931F93CF93DF93CF
:1035F000CDB7DEB7CA1BDB0B0FB6F894DEBF0FBE2C
:10360000CDBF09942A88398848885F846E847D8478
:103610008C849B84AA84B984C884DF80EE80FD807A
:103620000C811B81AA81B981CE0FD11D0FB6F894F0
:10363000DEBF0FBECDBFED010895DF93CF939F9204
:10364000A0E49A2E0024D001E001F0011695079520
:10365000F794E794D794C794B794A79448F4106864
:10366000A20FB31FC41FD51FE61FF71F081E191E88
:10367000220F331F441F551F661F771F881F991F76
:103680009A9421F79D01AE01BF01C00111249F90C2
:10369000CF91DF910895803209F091116BC2805271
:1036A0008F55E0F708959111089581568A5108F4D5
:1036B000805285580895A0E0B0E0E0E6FBE194CFA9
:1036C0000F811885F801838188608383AE01455F8F
:1036D0005F4F69857A85C8018AD0F8012381277FE9
:1036E0002383E4E09DCF0F931F93CF93DF93182F95
:1036F000092FEB018B8181FD03C08FEF9FEF20C06D
:1037000082FF10C04E815F812C813D81421753079B
:103710007CF4E881F9819F012F5F3F4F3983288333
:10372000108306C0E885F985812F0995892B29F733
:103730002E813F812F5F3F4F3F832E83812F902F1C
:10374000DF91CF911F910F910895EF92FF920F9308
:103750001F93CF93DF938B01DB0113962C9121FFF5
:1037600016C0EC01E12CF12C8991882371F0D8016D
:103770001896ED91FC911997B8010995892BA1F341
:10378000EE24EA94FF24FA94EFCFC70102C08FEF32
:103790009FEFCDB7DEB7E6E041CFEF92FF920F93F8
:1037A0001F93CF93DF93EC018B01DB0113968C9178
:1037B00081FF17C0E12CF12CFE018491882379F060
:1037C000D8011896ED91FC911997B8010995892BAC
:1037D00021F0EE24EA94FF24FA942196EDCFC7015C
:1037E00002C08FEF9FEFCDB7DEB7E6E017CFACE0BA
:1037F000B0E0ECEFFBE1EACE7C016B018A01FC0159
:1038000017821682838181FFB0C1CE0101964C01DF
:10381000F7019381F60193FD859193FF81916F01EB
:10382000882309F49EC1853239F493FD859193FF75
:1038300081916F01853221F4B70190E054DFE8CF28
:10384000512C312C20E02032A0F48B3269F030F47E
:10385000803259F0833269F420612CC08D3239F006
:10386000803339F4216026C02260246023C02860A0
:1038700021C027FD27C030ED380F3A3078F426FFFD
:1038800006C0852D6AE0EFD1582E530E13C0832D4C
:103890006AE0E9D1382E330E20620CC08E3221F45A
:1038A00026FD5FC1206406C08C3611F4206802C07A
:1038B000883641F4F60193FD859193FF81916F0164
:1038C0008111C1CF982F9F7D9554933028F40C5FC0
:1038D0001F4FFFE3F9830DC0833631F0833771F05A
:1038E000833509F057C021C0F801808189830E5FBC
:1038F0001F4F44244394512C540114C03801F2E06A
:103900006F0E711CF801A080B18026FF03C0652DE9
:1039100070E002C06FEF7FEFC5012C8739D12C0119
:1039200083012C852F77222E16C03801F2E06F0E0E
:10393000711CF801A080B18026FF03C0652D70E0E6
:1039400002C06FEF7FEFC5012C8717D12C012C85AA
:103950002068222E830123FC19C0832D90E0481695
:103960005906A0F4B70180E290E0BDDE3A94F5CFAD
:10397000F50127FC859127FE81915F01B70190E059
:10398000B2DE31103A94F1E04F1A5108411451045B
:1039900079F7DEC0843611F0893631F5F80127FF5A
:1039A00007C060817181828193810C5F1F4F08C0C5
:1039B00060817181882777FD8095982F0E5F1F4F5A
:1039C0002F76B22E97FF09C09095809570956195DE
:1039D0007F4F8F4F9F4F2068B22E2AE030E0A40126
:1039E000E2D0A82EA81843C0853729F42F7EB22E26
:1039F0002AE030E025C0F22FF97FBF2E8F36C1F0CC
:103A000018F4883579F0ADC0803719F0883721F087
:103A1000A8C02F2F2061B22EB4FE0DC08B2D846064
:103A2000B82E09C024FF0AC09F2F9660B92E06C089
:103A300028E030E005C020E130E002C020E132E0C3
:103A4000F801B7FE07C060817181828193810C5FAC
:103A50001F4F06C06081718180E090E00E5F1F4FB4
:103A6000A401A1D0A82EA818FB2DFF77BF2EB6FE6B
:103A70000BC02B2D2E7FA51450F4B4FE0AC0B2FC4F
:103A800008C02B2D2E7E05C07A2C2B2D03C07A2C3E
:103A900001C0752C24FF0DC0FE01EA0DF11D8081CF
:103AA000803311F4297E09C022FF06C073947394F9
:103AB00004C0822F867809F0739423FD12C020FF82
:103AC00006C05A2C731418F4530C5718732C731423
:103AD00060F4B70180E290E02C8705DE73942C85BA
:103AE000F6CF731410F4371801C0312C24FF11C025
:103AF000B70180E390E02C87F6DD2C8522FF16C00D
:103B000021FF03C088E590E002C088E790E0B7019C
:103B10000CC0822F867851F021FD02C080E201C0E6
:103B20008BE227FD8DE2B70190E0DDDDA51430F4D6
:103B3000B70180E390E0D7DD5A94F8CFAA94F4015E
:103B4000EA0DF11D8081B70190E0CDDDA110F6CF27
:103B5000332009F45DCEB70180E290E0C4DD3A94F1
:103B6000F7CFF7018681978102C08FEF9FEF2C96E8
:103B7000E2E148CD992788270895FC01059061501E
:103B800070400110D8F7809590958E0F9F1F089573
:103B9000FC016150704001900110D8F7809590951C
:103BA0008E0F9F1F0895FA01AA27283061F1203156
:103BB00091F1E8946F936E7F6E5F7F4F8F4F9F4FB1
:103BC000AF4FB1E040D0B4E03ED0670F781F891FFF
:103BD0009A1FA11D680F791F8A1F911DA11D6A0FD1
:103BE000711D811D911DA11D22D009F468943F9182
:103BF000062E000C3019000C000C3019305D31938A
:103C0000CEF6CF010895462F4770405D4193B3E053
:103C10000FD0C9F7F6CF462F4F70405D4A3318F0EA
:103C2000495D31FD4052419302D0A9F7EACFB4E09B
:103C3000A6959795879577956795BA95C9F7009753
:103C40006105710508959B01AC010A2E06945795F4
:103C5000479537952795BA95C9F7620F731F841F4B
:103C6000951FA01D0895002480FD060E660F11F01B
:0C3C70008695D1F7802D0895F894FFCFC1
:103C7C000083100000010410000001820800000104
:103C8C000000000000000000000000000000030025
:103C9C000000007211E71100002F667067612E6240
:043CAC00696E00003D
:00000001FF
