:1000000064C300007EC300007CC300007AC300000C
:1000100078C3000076C3000074C3000072C3000000
:1000200070C300006EC300005CC400000C94DA0BC7
:100030000C94810C66C3000064C3000063C300001D
:1000400060C300005EC300005CC300005AC3000030
:1000500058C3000056C3000054C300000C9441155F
:100060000C94C8140C94AC144CC300004AC3000098
:1000700048C30000B6058105BE05D7058105810589
:1000800081058105810581058105DF0581058105E2
:10009000FD0581058105810581051F0605060D0603
:1000A0009505CE074607D607C60746074607460703
:1000B0004607460746074607AD0746074607A50712
:1000C000460746074607460794078C077A075907ED
:1000D0007C094509B2084509B20826090109B20898
:1000E000EE08CF084D6F756E74696E67205344201B
:1000F00064726976650D0A000D0A4368616E67696E
:100100006E6720746F2070726F6772616D6D6572BB
:10011000206D6F64650D0A006368616E67696E67C4
:1001200020746F2072756E206D6F64650D0A005526
:100130006E6D6F756E74696E6720534420647269CA
:1001400076650D0A00534420647269766520616CFF
:100150007265616479206D6F756E746564210D0A36
:10016000004D6F756E74696E672053442064726928
:1001700076650D0A002E256400446973636F6E6E08
:1001800065637420796F75722073657269616C2084
:10019000636F6E6E656374696F6E2C207265626F3B
:1001A0006F74696E6720696E746F20444655206DC8
:1001B0006F646520696E2038005468697320776920
:1001C0006C6C207374617274207468652066697247
:1001D0006D776172652075706772616465207072F9
:1001E0006F636573732C0D0A7072657373202763D8
:1001F0002720746F20636F6E74696E75652C2061A3
:100200006E79206F74686572206B657920746F2039
:1002100063616E63656C0D0A00095809657869743D
:100220002070726F6772616D6D6572206D6F6465AD
:1002300020616E642072756E0D0A0009570977728D
:10024000697465204650474120636F6E6669677523
:10025000726174696F6E2066726F6D205344206303
:100260006172640D0A000956097665726966792023
:100270004650474120636F6E6669677572617469A5
:100280006F6E20616761696E7374205344206361EF
:1002900072640D0A00095509756E6D6F756E7420D4
:1002A000534420636172640D0A00094D096D6F7536
:1002B0006E7420534420636172640D0A000948097A
:1002C0007072696E7420746869732068656C702040
:1002D0006D6573736167650D0A0009450965726193
:1002E0007365204650474120636F6E66696775727B
:1002F0006174696F6E0D0A00094409707574206994
:100300006E746F20444655206D6F646520666F7271
:1003100020757067726164696E6720746869732004
:100320006669726D776172650D0A0009420976652A
:1003300072696679204650474120636F6E6669672F
:1003400075726174696F6E206572617365640D0A00
:1003500000436F6D6D616E64733A0D0A003D3D3D63
:100360003D3D3D3D3D3D3D3D3D3D3D3D3D3D3D3DBD
:100370003D3D3D0D0A0D0A000D0A0D0A54757274BB
:100380006C6520465047412050726F6772616D6DF9
:1003900065720D0A002E034C0055004600410020F6
:1003A000005500530042002D00520053003200332C
:1003B000003200200041006400610070007400659C
:1003C000007200000018034400650061006E002008
:1003D00000430061006D00650072006100000004D0
:1003E00003090409023E00020100C03209040000B2
:1003F0000102020100052400100104240206052464
:10040000060001070582030800FF09040100020A33
:100410000000000705040210000507058302100014
:10042000051201100102000008EB034B200100013E
:1004300002DC0120646F6E650D0A0045726173690C
:100440006E6720666C617368202874616B65732029
:100450003C203630732E2E2E2900253032582000B5
:10046000253034583A20002530386C583A0D0A00AF
:10047000706173736564200D0A0061626F72746548
:1004800064200D0A006661696C6564200D0A002510
:1004900030386C583A20253032580D0A00256C64EB
:1004A000206B620D00426C616E6B20636865636B4C
:1004B0002C20707265737320616E79206B657920D2
:1004C000746F2061626F72743A0D0A007061737309
:1004D0006564200D0A006661696C65642077697443
:1004E00068202575206572726F72730D0A002530C1
:1004F000386C583A2053443D2530325820636667A3
:100500003D253032580D0A00256C64206B620D00C9
:100510004661696C656420746F2072656164205364
:100520004420636172640D0A0056657269667969D8
:100530006E6720636F6E66696775726174696F6E4E
:100540003A0D0A00636F6D706C6574650D0A006684
:1005500061696C6564200D0A00256C64206B620D76
:1005600000726573203D2025640D0057726974691F
:100570006E6720636F6E66696775726174696F6E0E
:100580003A0D0A0009434D44313728255829207275
:10059000657475726E65642025640D0A006572725B
:1005A000320D0A00657272310D0A005344206572E3
:1005B000726F720D0A004D4D437633206361726491
:1005C0002064657465637465640D0A005344763174
:1005D00020636172642064657465637465640D0AE8
:1005E00000534476322063617264206465746563ED
:1005F0007465640D0A00434D4430206661696C6582
:1006000064200D0A004572726F72202D2046525FE1
:100610004449534B5F4552520D0A004572726F7246
:10062000202D2046525F4E4F545F4F50454E45445B
:100630000D0A004572726F72202D2046525F4E4F98
:10064000545F454E41424C45440D0A0053442063DB
:10065000617264206D6F756E746564204F4B0D0A76
:100660000046525F4E4F5F46494C455359535445DF
:100670004D0D0A0046525F4449534B5F4552520D9F
:100680000A004E6F2076616C6964204641542070E8
:100690006172746974696F6E20697320666F756E1C
:1006A000640D0A00666D74203D3D20330D0A006420
:1006B00069736B5F696E697469616C697A65282911
:1006C000206661696C65640D0A0011241FBECFEFBE
:1006D000D4E0DEBFCDBF11E0A0E0B1E0E6EDF1E493
:1006E00002C005900D92A632B107D9F722E0A6E22A
:1006F000B1E001C01D92AF30B207E1F7F7D20C9420
:10070000E9207ECC1F920F920FB60F9211248F9387
:100710009F93B19A8091D50186958370813009F4B9
:1007200094C008F487C0823009F47CC080E580BFA3
:100730008091D5018F778093D50100B605FE05C065
:100740008091D50180688093D50182E080939D00DF
:100750000000000000B605FE05C08091D50180684C
:100760008093D50183E080939D000000000000B6D7
:1007700005FC52C084E080939D0000000000809141
:10078000D50187FD05C08091D50188618093D50191
:100790008091D60180FF39C08091C3019091C4013E
:1007A000892B49F08091C3019091C40101979093E6
:1007B000C4018093C3018091E401882329F08091D2
:1007C000E40181508093E4018091E301882329F0C2
:1007D0008091E30181508093E3018091D50186955A
:1007E000869586958370823009F44FC008F063C007
:1007F000813009F040C0809126018F5F883008F079
:100800006CC02C9A8F70809326019F918F910F90CE
:100810000FBE0F901F9018958091D501806880932E
:10082000D501A8CF4F9B82CF8091D501897F80933E
:10083000D5017CCF4F997ACF109227018091D501B5
:10084000897F82608093D50171CF809127018F5F6E
:10085000809327014F9929C08D3008F467CF80918C
:10086000D50180648093D5018091D501897F846012
:100870008093D5015BCF2C9A109226019F918F9186
:100880000F900FBE0F901F901895809126018F5FDB
:10089000843008F52C9A8770809326019F918F9160
:1008A0000F900FBE0F901F9018958C30A8F6809176
:1008B000D5018062D7CF809126018F5F823078F09A
:1008C0002C988370809326019F918F910F900FBE7B
:1008D0000F901F9018952C98DECF2C9893CF2C9AC0
:1008E000F0CF1F920F920FB60F9211242F938F9378
:1008F0009F932D982FEF81EE94E0215080409040FF
:10090000E1F700C000002D9A82E08BBB9F918F9190
:100910002F910F900FBE0F901F901895811114C04A
:10092000109281008FEF86BB8091D501897F8093E3
:10093000D5018091D5018F7B8093D5018091D50120
:100940008F7D8093D50108951092800010928500CC
:10095000109284008DE0809381008DE093E090936D
:1009600089008093880080916F00826080936F007F
:10097000D9CF84B7877F84BF0FB6F894A8958091AC
:100980006000886180936000109260000FBE87EF66
:1009900084B917B888E08AB9469A2D9A279826987C
:1009A00090E080E80FB6F894809361009093610026
:1009B0000FBE81E0B3DFEFD680E00E946E1481E0CD
:1009C0000E94B51580E580BF81E080936C0082E0D5
:1009D00080936800089580E091E002C580E091E096
:1009E000E9C56091D3017091D40188E793E00E943A
:1009F000331E6091D3017091D4018DE593E00E9484
:100A0000331E6091D3017091D40181E593E00E947F
:100A1000331E6091D3017091D4018BE293E00E9468
:100A2000331E6091D3017091D40188EF92E00E944F
:100A3000331E6091D3017091D4018AED92E00E943F
:100A4000331E6091D3017091D4018DEB92E00E942E
:100A5000331E6091D3017091D4018AEA92E00E9422
:100A6000331E6091D3017091D40185E992E00E9418
:100A7000331E6091D3017091D40186E692E00E940A
:100A8000331E6091D3017091D4018BE392E00E94F8
:100A9000331E6091D3017091D40189E192E00C94EE
:100AA000331E80E091E021D568C7CF93DF93EC013E
:100AB000F8DF80E091E030D597FDFACF888381E0C0
:100AC000DF91CF910895F1CFDF92EF92FF920F93D4
:100AD0001F93CF93DF931F92CDB7DEB79091D601CE
:100AE0009B7F9093D6019091D501977E90619093D2
:100AF000D50190E00E94AE1D825491098731910585
:100B000078F06FDF8091D501877E8093D5010F90BB
:100B1000DF91CF911F910F91FF90EF90DF9008959B
:100B2000865C9F4FFC010C94A01D80E00E94831AFC
:100B300080E00E946E1481E00E94B515FFEF29E667
:100B400088E1F15020408040E1F700C00000609152
:100B5000D3017091D40188E191E00E94331E80910D
:100B6000D6018E7F8093D6012C98D1CF0E94A912F6
:100B70008091D501877E8093D501C9CF6091D30143
:100B80007091D40189EB91E00E94331ECE01019651
:100B90009ADF6091D3017091D401898190E00E9425
:100BA000CE1D8981833609F456C01BDFB0CF0E9469
:100BB00044148091D501877E8093D501A8CF6091A0
:100BC000D3017091D40181E691E00E94331E80919F
:100BD000D60181FF87C06091D3017091D40185E473
:100BE00091E00E94331E8091D60181FD8BCF8091D0
:100BF000D50188618093D5018ACF0E9476138091B8
:100C0000D501877E8093D50182CF0E9459118091B2
:100C1000D501877E8093D5017ACF0E946210909192
:100C2000D60192FB222720F9822B80FB92F9909328
:100C3000D6018091D501877E8093D50168CF6091E0
:100C4000D3017091D4018FE291E00E94331E80E0C5
:100C50000E94831ACCCF25DF6091D3017091D4011B
:100C600089E791E00E94331E8091D50188618093CD
:100C7000D5012C9A07E010E08AE0D82E95E7E92EFE
:100C800091E0F92ED092E4018091E401882329F0CB
:100C900008DF8091E4018111FBCF1F930F93FF9236
:100CA000EF928091D4018F938091D3018F930E9412
:100CB000B61D015011090F900F900F900F900F90DB
:100CC0000F9001F70E94A014F894A89599E088E18C
:100CD0000FB6F894A895809360000FBE90936000C3
:100CE0002C98FFCF81E00E94831A7DCFCF93DF93B2
:100CF00000D0CDB7DEB704B603FCBBC13ADE85EC4D
:100D000091E09093D4018093D301E8E6F1E02FB70E
:100D1000F89488E291E09183808393838283958322
:100D2000848388E691E09783868380E490E09187CE
:100D30008087138612862FBF65EC71E080E091E01A
:100D400025D48091D6018E7F8093D601789417C0E8
:100D50008091D50185FD81C08091D50186FF05C0B8
:100D60008091D5018F7B8093D5010E94A5148823A3
:100D700009F440C08091D60180FF4AC092DE809184
:100D8000D60180FDE5CF9091D50195FFEECF9091F2
:100D9000D5019F7D9093D50181608093D6016091AC
:100DA000D3017091D40188EF90E00E94331E79DE68
:100DB00080E00E94B51581E00E946E146091D3011D
:100DC0007091D40184EE90E00E94331E81E00E9475
:100DD000831A07DE66DE8091D6019091D50181FDF0
:100DE0005FC098619093D50180FDB2CF0E94A51499
:100DF0008111C0CF80E091E08FD397FDBBCF2091D0
:100E0000D60120FF4AC060DE8091D60180FDB6CFBA
:100E10000E947C1590E0009709F4B0CF2091010169
:100E20002F702093E9002091E80020FFA7CF8031A8
:100E3000910510F08FE090E0182FCE0102960E94ED
:100E40007F15882309F49ACF6A8180E091E0EDD282
:100E50001150811193CF89F791CF8091D5018F7D6A
:100E60008093D5018091D6018B7F8093D6018091AC
:100E7000D501877E80618093D50188E590E00E944E
:100E8000AE1D825491098731910570F0AADD8091E1
:100E9000D501877E8093D5015FCF0E9404156ACF6C
:100EA000977E9093D501A0CF8F5A9F4FFC010C9451
:100EB000A01D80E00E94831A80E00E946E1481E0F1
:100EC0000E94B515FFEF29E688E1F15020408040EF
:100ED000E1F700C000006091D3017091D40188E176
:100EE00091E00E94331E8091D6018E7F8093D601BF
:100EF0002C9832CF0E9462109091D60192FB22274B
:100F000020F9822B80FB92F99093D6018091D50134
:100F1000877E8093D50120CF0E9459118091D50101
:100F2000877E8093D50118CF6091D3017091D40151
:100F30008FE291E00E94331E80E00E94831A80912C
:100F4000D50188618093D50107CF0E9476138091E7
:100F5000D501877E8093D501FFCE6091D30170913A
:100F6000D40181E691E00E94331E8091D60181FF79
:100F700035C06091D3017091D40185E491E00E9465
:100F8000331E8091D60181FFDACF81CF0E944414B5
:100F90008091D501877E8093D501DECE0E94A91273
:100FA0008091D501877E8093D501D6CE6091D30103
:100FB0007091D40189EB91E00E94331ECE0101961D
:100FC00082DD6091D3017091D401898190E00E940B
:100FD000CE1D8981833631F004DDBECE81E00E94D2
:100FE000831ACFCF5EDD6091D3017091D40189E780
:100FF00091E00E94331E8091D50188618093D501D4
:101000002C9A07E010E08AE0D82E95E7E92E91E0CF
:10101000F92ED092E4018091E401882329F041DD8A
:101020008091E4018111FBCF1F930F93FF92EF9208
:101030008091D4018F938091D3018F930E94B61D2C
:10104000015011090F900F900F900F900F900F907B
:1010500001F70E94A014F894A89599E088E10FB6D2
:10106000F894A895809360000FBE909360002C9830
:10107000FFCFE0E0F0E7099541CE292F332722305A
:10108000310519F12330310599F02130310541F056
:1010900080E090E020E030E0FA0131832083089581
:1010A00082E190E021E234E0FA0131832083089567
:1010B00099278130910589F0B0F0029749F7E5E969
:1010C000F3E0849190E09F01E7CF8EE390E023EE80
:1010D00033E0FA01318320830895E5ECF3E0849155
:1010E00090E09F01D9CFEFEDF3E0849190E09F0174
:1010F000D3CF1F93CF93DF93CDB7DEB7AA970FB6A9
:10110000F894DEBF0FBECDBF8091F1008093DB016C
:101110008091F1008093DC018091F1008093DD01EA
:101120008091F1008093DE018091F1008093DF01D6
:101130008091F1008093E0018091F1008093E101C2
:101140008091F1008093E20149DC8091E80083FF07
:1011500009C02091DB013091DC01832F90E08A30BF
:101160009105C0F08091E80083FF0AC08091E800FB
:10117000877F8093E8008091EB0080628093EB0092
:10118000AA960FB6F894DEBF0FBECDBFDF91CF9108
:101190001F910895FC01E859FF4F0C94A01D2111E7
:1011A000E1CF8091DD019091DE0199270297D4F67D
:1011B0008091E800877F8093E8008091DD01809333
:1011C000D70108D58091D7018111CEC08091E3006D
:1011D00087FDCAC081E08EBBFEDBC4CF203809F09A
:1011E000C1CF8091E800877F8093E8008091D7018C
:1011F0008093F1008091E8008E778093E800EAD434
:10120000B1CF2058223008F0ADCF8091DD01909110
:10121000DE018C3D53E0950709F4A8C0AE014F5F95
:101220005F4F6091DF0129DFBC01892B09F49ACF60
:101230009091E800977F9093E80089819A8123D666
:101240008091E8008B778093E8008CCF21118ACFC2
:101250001091DD011F778091E3008078812B8093CE
:10126000E3008091E800877F8093E800B3D4809109
:10127000E80080FFFCCF8091E30080688093E3006A
:1012800011116FC082E08EBB6DCF222309F455C0CF
:10129000223009F067CF8091DD01811124C0809157
:1012A000DF018F7009F45ECF8093E9009091EB002D
:1012B00090FF19C0333009F48DC09091EB0090611C
:1012C0009093EB0021E030E0A90102C0440F551FCC
:1012D0008A95E2F74093EA001092EA008091EB00D1
:1012E00088608093EB001092E9008091E800877F8E
:1012F0008093E8006FD436CF203859F1223809F0B6
:1013000031CF8091DF018F708093E9008091EB00F5
:1013100085FB882780F91092E9009091E800977F7B
:101320009093E8008093F1001092F1008091E80022
:101330008E778093E8004ED415CF8091DD01813007
:1013400009F010CF81E0333009F080E08093D901BB
:10135000CACF8091D8019091D9019923F1F282608E
:10136000DCCF83E08EBBFECE84E035CF83E08A8382
:101370008AE289835FB7F894DE01139620E03EE0AD
:1013800041E207C090E0C7968D939D932F5F243173
:1013900081F0E32FF0E040935700849120FF03C0D9
:1013A00082958F703F5F8F708A3060F790E0C096B3
:1013B000EBCF5FBF8091E800877F8093E8006AE20F
:1013C00070E0CE0101965CD48091E8008B77809329
:1013D000E800C8CE8091EB0080628093EB0083CF61
:1013E000CF93DF93EC01FC0170968BE0DF011D923F
:1013F0008A95E9F782E08C83898783E08E8761E0B4
:10140000CE010196A2D3811104C080E0DF91CF917B
:10141000089561E0CE01069698D38823B1F361E088
:10142000CE010B96DF91CF9190C3CF93FC019EB379
:10143000943019F082E0CF91089584899589A68926
:10144000B789892B8A2B8B2BA9F3C62F81818F70AB
:101450008093E9008091E80085FF04C0C093F1000B
:1014600080E0E9CF8091E8008E778093E800D1D3C7
:101470008823A1F3E0CFFB01682F84859585D5DF14
:1014800021E030E0811102C020E030E08827992778
:10149000821B930B0895FC019EB3943011F082E0FF
:1014A000089584899589A689B789892B8A2B8B2BE6
:1014B000B1F381818F708093E9008091F2008823DD
:1014C00049F09091E8008091E8008E778093E800E1
:1014D00095FF02C080E008959CD38111E1CF8091F7
:1014E000E8008E778093E800F5CFFC019EB394303E
:1014F00009F0089584899589A689B789892B8A2B53
:101500008B2BB9F381818F708093E9008091E80083
:1015100080FFEFCFCF01BFCF2EB3243059F5FC01B0
:101520004489558966897789452B462B472B11F1CC
:1015300086818F708093E9008091E80082FF1AC055
:101540008091F20081110DC02FEF3FEF8091F200EA
:1015500081110EC08091E8008B778093E800C9016B
:1015600008952091F10030E08091F200882391F3FA
:10157000C90108958FEF9FEF0895FC01848595853B
:10158000CBDF97FF08958EEF9FEF0895FB012EE0CC
:10159000DB011D922A95E9F723E023832BE33AE050
:1015A000318720872DEB3AE0338722879587848720
:1015B000089508950F931F93CF93DF932091E80030
:1015C00023FF0AC0FC01208130E04091DF015091EF
:1015D000E0014217530729F0DF91CF911F910F913E
:1015E00008952091DC01213209F44EC0EC01223231
:1015F000B8F0223209F481C0233271F78091DB0107
:10160000813251F78091E800877F8093E800E2D231
:101610006091DD01CE01DF91CF911F910F91C9CF74
:101620002032D1F68091DB018132B1F68091E80061
:10163000877F8093E80003C08EB3882369F280918E
:10164000E80082FFF9CF3091F1002091F1009091F4
:10165000F1008091F1003C8B2D8B9E8B8F8B8091C4
:10166000F100888F8091F100898F8091F1008A8F3D
:101670008091E8008B778093E800ACD2CE01DF91B7
:10168000CF911F910F9195CF2091DB01213A09F065
:10169000A3CF2091E800277F2093E8002091E80065
:1016A00020FFFCCFFC0144895589668977894093E6
:1016B000F100052F162F272F33270093F1008B0100
:1016C000222733270093F100472F552766277727D6
:1016D0004093F100208D2093F100218D2093F100A3
:1016E000828D8093F1008091E8008E778093E800EE
:1016F000DF91CF911F910F916DC28091DB018132FB
:1017000009F06ACF8091E800877F8093E80062D279
:101710008091DD019091DE01998B888BCE01DF9164
:10172000CF911F910F9145CF3FD041D08091D800EC
:101730008F778093D8008091D80080688093D800FC
:101740008091D8008F7D8093D80019BC82E089BD3C
:1017500009B400FEFDCF1EBA1092D7011092D90134
:101760001092D80142E060E080E029D18091E10050
:101770008E7F8093E1008091E20081608093E2009F
:101780008091E20088608093E2008091E0008E7F8B
:101790008093E0000895E3E6F0E080818E7F80830F
:1017A00081E08093DA01C0CF1092E2000895109298
:1017B000E10008951F920F920FB60F9211242F93FC
:1017C0003F934F935F936F937F938F939F93AF93C9
:1017D000BF93EF93FF938091E10082FF04C080915B
:1017E000E20082FD81C08091E10080FF04C0809111
:1017F000E20080FD66C08091E10084FF26C08091F8
:10180000E20084FF22C019BC82E089BD09B400FE59
:10181000FDCF8091D8008F7D8093D8008091E1002A
:101820008F7E8093E1008091E2008F7E8093E200C2
:101830008091E20081608093E2008091D70188234B
:1018400009F459C084E08EBB97D08091E10083FFFA
:1018500004C08091E20083FD11C0FF91EF91BF9120
:10186000AF919F918F917F916F915F914F913F9138
:101870002F910F900FBE0F901F9018958091E1004F
:10188000877F8093E10082E08EBB1092D701809128
:10189000E1008E7F8093E1008091E2008E7F809353
:1018A000E2008091E20080618093E20042E060E02B
:1018B00080E085D08091F00088608093F0005CD05B
:1018C000CCCF8091E2008E7F8093E2008091E20095
:1018D00080618093E2008091D80080628093D8007C
:1018E00019BC1EBA49D087CF8091E1008B7F8093CD
:1018F000E10042D078CF8091E30087FDA3CF81E063
:10190000A2CF1F920F920FB60F9211242F933F93E5
:101910004F935F936F937F938F939F93AF93BF93F7
:10192000CF93EF93FF93C091E900CF708091EC00CB
:101930001092E9008091F000877F8093F000789406
:10194000D8DB1092E9008091F00088608093F0006D
:10195000C093E900FF91EF91CF91BF91AF919F911B
:101960008F917F916F915F914F913F912F910F9048
:101970000FBE0F901F9018950895CF938EB38823B4
:1019800091F0C091E900CF708091EC0080FD0DC016
:1019900080E0C82B1092E9008091E80083FD0DC023
:1019A000CF70C093E900CF91089580E8C82B1092C2
:1019B000E9008091E80083FFF3CF9BDBF1CF853016
:1019C00008F055C08093E90041FDA5C091E0980F53
:1019D000953009F44CC09093E9004091EC0090914F
:1019E000ED003091F00091FD7CC092E0980F9530B1
:1019F000F1F19093E9004091EC009091ED0030916D
:101A0000F00091FD54C093E0980F953081F19093D0
:101A1000E9004091EC009091ED003091F00091FDD3
:101A20002BC0811124C094E09093E9004091EC0018
:101A30009091ED003091F00091FF19C02091EB00E2
:101A40002E7F2093EB002091ED002D7F2093ED0061
:101A50002091EB0021602093EB004093EC009093E9
:101A6000ED003093F0009091EE0097FF1EC08F7054
:101A70008093E90081E008952091EB002E7F209370
:101A8000EB002091ED002D7F2093ED002091EB00E5
:101A900021602093EB004093EC009093ED00309395
:101AA000F0009091EE0097FDBCCF80E0089520916A
:101AB000EB002E7F2093EB002091ED002D7F2093F3
:101AC000ED002091EB0021602093EB004093EC00AF
:101AD0009093ED003093F0009091EE0097FFE5CFEA
:101AE00092CF2091EB002E7F2093EB002091ED0010
:101AF0002D7F2093ED002091EB0021602093EB00DF
:101B00004093EC009093ED003093F0009091EE0044
:101B100097FFCBCF6ACF9091EB009E7F9093EB0025
:101B20009091ED009D7F9093ED009091EB0091607E
:101B30009093EB006093EC004093ED001092F00066
:101B40009091EE0097FFB1CF41CF0F931F93CF93AA
:101B5000DF93662381F1062FEC0110E09881992331
:101B600031F12C81E981FA816B81892F8F70853069
:101B700058F5223030F146E056E0E930F10560F0EA
:101B800028E030E040E04F5F220F331F2E173F0761
:101B9000D0F34295407F452B6295660F660F607CBF
:101BA000991F9927991F692B0ADF882369F01F5F06
:101BB00025960113D3CF81E0DF91CF911F910F9133
:101BC000089542E052E0D9CF80E0DF91CF911F919C
:101BD0000F9108958091DB0187FF04C010C08EB380
:101BE000882349F08091E80080FFF9CF8091E800D8
:101BF0008E778093E80008958EB38823E1F3809177
:101C0000E80082FFF9CF8091E8008B778093E800AD
:101C100008954091E4005091E50025E69091EC0094
:101C2000892F817090FF1DC08091E80080FD26C043
:101C30008EB38823D9F08530D9F08091EB0085FDF3
:101C400019C08091E4009091E5004817590731F3DD
:101C5000215091F0AC019091EC00892F817090FDA2
:101C6000E3CF9091E80092FFE3CF089582E00895DA
:101C700083E0089581E0089584E0089580E0089568
:101C80002091E1013091E2012617370758F06115E4
:101C9000710509F03FC02091E8002E772093E800FD
:101CA00020E030E0FC0180E02115310521F58111B3
:101CB0000FC02AC0853081F18091E80083FD2EC0DD
:101CC0008091E80082FD20C08091E80080FDBEC0C8
:101CD0008EB38111EFCF82E008958530E9F08091D5
:101CE000E80083FD1BC08091E80082FD0DC080915B
:101CF000E80080FD15C08EB38111EFCFECCF8EB31D
:101D0000882349F3853041F08091E80082FFF7CFC6
:101D100080E008959B01C6CF83E0089581E0089597
:101D20008091F20090E08830910508F09FC0DF01BB
:101D30004D914093F100A90141505109BC016F5FE1
:101D40007F4F4115510509F488C06830710509F4C9
:101D500079C041814093F100DF011296A901425000
:101D60005109BC016E5F7F4F4115510509F475C0E3
:101D70006830710509F466C042814093F100DF01CB
:101D80001396A90143505109BC016D5F7F4F411566
:101D9000510509F462C06830710509F453C04381EC
:101DA0004093F100DF011496A90144505109BC0190
:101DB0006C5F7F4F4115510509F44FC068307105C4
:101DC00009F440C044814093F100DF011596A90158
:101DD00045505109BC016B5F7F4F41155105E9F139
:101DE0006830710579F145814093F100DF01169665
:101DF000A90146505109BC016A5F7F4F4115510549
:101E000061F168307105F1F046814093F100DF0126
:101E10001796A90147505109BC01695F7F4F4115D1
:101E2000510551F16730710569F487818093F100A4
:101E300038962850310981E09091E8009E77909380
:101E4000E80032CFFD019A0181E0F6CF9091F200D7
:101E500081E0983089F380E0EFCF81E06830710550
:101E600009F080E0FD0120E030E0E6CF41E0089796
:101E700009F040E0842FE0CF91E06830710509F06F
:101E800090E0892FEFCF2091E1013091E2012617F8
:101E9000370758F06115710509F03FC02091E8003F
:101EA0002E772093E80020E030E0AC0180E021159F
:101EB000310521F581110FC02AC0853081F1809153
:101EC000E80083FD2EC08091E80082FD20C0809153
:101ED000E80080FDB3C08EB38111EFCF82E008959A
:101EE0008530E9F08091E80083FD1BC08091E80017
:101EF00082FD0DC08091E80080FD15C08EB3811178
:101F0000EFCFECCF8EB3882349F3853041F0809139
:101F1000E80082FFF7CF80E008959B01C6CF83E001
:101F2000089581E008958091F20090E08830910555
:101F300008F093C0FA0164916093F1003196B90101
:101F400061507109DC0111966115710509F47DC0BC
:101F5000189709F46FC0E491E093F100FA0132960A
:101F6000B90162507109DC0112966115710509F41D
:101F70006CC0189709F45EC0E491E093F100FA0197
:101F80003396B90163507109DC011396611571052F
:101F900009F45BC0189709F44DC0E491E093F10097
:101FA000FA013496B90164507109DC011496611587
:101FB000710509F44AC0189709F43CC0E491E09314
:101FC000F100FA013596B90165507109DC011596E9
:101FD0006115710509F439C0189761F1E491E09336
:101FE000F100FA013696B90166507109DC011696C6
:101FF0006115710551F11897E9F0E491E093F10052
:10200000FA013796B90167507109DC01179661151D
:10201000710549F1179771F4E491E093F100485F7D
:102020005F4F2850310981E09091E8009E779093AE
:10203000E8003DCFAF019B0181E0F6CF9091F20027
:1020400081E0983089F380E0EFCF81E0189709F0C4
:1020500080E0AF0120E030E0E7CF61E0089709F0D1
:1020600060E0862FE1CF91E0189709F090E0892F8A
:10207000F0CF8EBD0DB407FEFDCF8EB508952F981D
:1020800085E0F7DF80E0F5DF80FDFACF2F9A089535
:102090001F93CF93DF93EB01182FF8942F9883E0D1
:1020A000E8DF812FE6DF8D2FE4DF8C2FE2DF7894ED
:1020B00080E0DF91CF911F9108952F9886E0D9DFBE
:1020C0002F9A08952F923F924F925F926F927F9234
:1020D0008F929F92AF92BF92CF92DF92EF92FF9238
:1020E0000F931F93CF93DF93CDB7DEB7C250D1408C
:1020F0000FB6F894DEBF0FBECDBF6091D3017091D3
:10210000D4018BE695E00E94331E8BE191E00E94A2
:10211000DB1BD82E8111AAC0812C912C5401412C9B
:10212000512C320139E5232E35E0332EAE014F5FBD
:102130005E4F60E071E0CE0101960E94391CD82EFE
:10214000CF5FDE4F88819981C150D140CC24C394A8
:102150008115914009F486C092DFAFDF2F9882E0AD
:1021600088DF8A2D86DF892D84DF80E082DFCF5FE4
:10217000DE4F88819981C150D140892B09F495C0E7
:10218000CE0101967C0100E010E0F70181917F0112
:1021900070DF0F5F1F4FCF5FDE4F88819981C15085
:1021A000D1400817190788F3A0E0B0E02F9A480E35
:1021B000591E6A1E7B1EC301B20120E038E240E0D6
:1021C00050E00E947E1D672B682B692B71F10E94E5
:1021D00051059FEF991AA90AB90ACC2009F4A6CF94
:1021E000D1105AC06091D3017091D40184E495E07C
:1021F0000E94331E8D2DCE5FDE4F0FB6F894DEBFEA
:102200000FBECDBFDF91CF911F910F91FF90EF9047
:10221000DF90CF90BF90AF909F908F907F906F9006
:102220005F904F903F902F900895D301C2012AE014
:10223000B695A795979587952A95D1F7BF93AF93B4
:102240009F938F933F922F928091D4018F9380918F
:10225000D3018F930E94B61D0FB6F894DEBF0FBE58
:10226000CDBFB5CFD11078CFC12C76CF1F928F9331
:1022700081E695E09F938F938091D4018F93809115
:10228000D3018F930E94B61D0E9451050F900F90AD
:102290000F900F900F900F906091D3017091D40127
:1022A0008FE495E00E94331EA5CF80E090E0DC0132
:1022B0007DCF2F923F924F925F926F927F928F923B
:1022C0009F92AF92BF92CF92DF92EF92FF920F93C5
:1022D0001F93CF93DF93CDB7DEB7C650D1400FB673
:1022E000F894DEBF0FBECDBF6091D3017091D401D1
:1022F00089E295E00E94331E8BE191E00E94DB1B96
:1023000081111EC1212C312C2101CD5FDE4F18829D
:1023100019821A821B82C350D1403EEEC32E34E094
:10232000D32ECD5FDE4F688179818A819B81C35036
:10233000D14020E038E240E050E00E947E1D672B53
:10234000682B692B09F4BBC0AE014F5F5E4F60E0A4
:1023500071E0CE0101960E94391CCF5FDE4F2881CB
:102360003981C150D140662463942115314009F46C
:10237000CDC02E9ACD5FDE4F688179818A819B81A5
:10238000C350D14085DECF5FDE4F88819981C15037
:10239000D140892B09F450C08E010F5F1F4FCD5FD4
:1023A000DE4F88809980AA80BB80C350D140E12C49
:1023B000F12C13C0FFEFEF1AFF0A0F5F1F4F2FEF33
:1023C000821A920AA20AB20ACF5FDE4F88819981EF
:1023D000C150D140E816F90678F5F89480E049DE5E
:1023E000782E7894D8018C91871521F3BFEF2B1AA2
:1023F0003B0A4B0A5B0AEEE12E16310441045104FC
:10240000C8F69ED21F927F92D8018C911F928F9313
:10241000BF92AF929F928F92DF92CF928091D40120
:102420008F938091D3018F930E94B61D0FB6F894BD
:10243000DEBF0FBECDBFBECFF89480E01ADE2F9A6C
:102440007894CD5FDE4F88819981AA81BB81C3508A
:10245000D1409F5FAF4FBF4FCD5FDE4F88839983E1
:10246000AA83BB83C350D140662009F45ACF2114FC
:1024700031044104510409F04DC06091D3017091C1
:10248000D4018CEC94E00E94331ECA5FDE4F0FB67D
:10249000F894DEBF0FBECDBFDF91CF911F910F919A
:1024A000FF90EF90DF90CF90BF90AF909F908F9074
:1024B0007F906F905F904F903F902F900895CD5FE9
:1024C000DE4F88819981AA81BB81C350D1402AE027
:1024D000B695A795979587952A95D1F7BF93AF9312
:1024E0009F938F9388E095E09F938F938091D40181
:1024F0008F938091D3018F930E94B61D0E94510546
:102500000FB6F894DEBF0FBECDBF1ECF811131CF05
:10251000612C2FCF5F924F923F922F9286ED94E0E5
:102520009F938F938091D4018F938091D3018F9348
:102530000E94B61D0FB6F894DEBF0FBECDBFA5CF6B
:102540006091D3017091D40180E195E00E94331E27
:102550009CCF3F924F925F926F927F928F929F9209
:10256000AF92BF92CF92DF92EF92FF920F931F93A1
:10257000CF93DF936091D3017091D40185EA94E009
:102580000E94331EC12CD12C760100E0412C38E290
:10259000532E612C712C4DE9842E44E0942E5FE87B
:1025A000A52E54E0B52EC701B601A30192010E94E9
:1025B0007E1D672B682B692B09F464C0C701B60127
:1025C00067DDC0E0D1E0312C04C03324339421977F
:1025D00039F1F89480E04DDD182F78948F3FB9F3EE
:1025E0000F5F0E3190F7ACD11F921F93FF92EF92C5
:1025F000DF92CF92BF92AF928091D4018F9380915E
:10260000D3018F930E94B61D8DB79EB70A960FB661
:10261000F8949EBF0FBE8DBF332433942197C9F623
:10262000F89480E026DD2F9A789480E091E00E9473
:102630008C0A97FF49C09FEFD91AE90AF90AC11419
:10264000D10480E4E806F10409F447C0332009F41A
:10265000AACF6091D3017091D40185E894E0DF9115
:10266000CF911F910F91FF90EF90DF90CF90BF908F
:10267000AF909F908F907F906F905F904F903F9022
:102680000C94331ED701C6012AE0B695A7959795FD
:1026900087952A95D1F7BF93AF939F938F939F927E
:1026A0008F928091D4018F938091D3018F930E9458
:1026B000B61D0E9451058DB79EB708960FB6F894C7
:1026C0009EBF0FBE8DBF7ACF3110C3CF6091D301B3
:1026D0007091D4018AE794E0C2CF3110BACF6091F3
:1026E000D3017091D40180E794E0B9CF5F926F92EB
:1026F0007F928F929F92AF92BF92CF92DF92EF9292
:10270000FF920F931F93CF93DF93CDB7DEB76397FD
:102710000FB6F894DEBF0FBECDBFCE0101960E946A
:102720005505C980D12C80E3C81AD1080D2C000CA6
:10273000EE08FF08FE2CED2CDC2CCC248DE0898BE0
:102740008AE08A8B1B8AC701B601A2DCFF92EF9256
:10275000DF92CF9287E694E09F938F938091D4018C
:102760008F938091D3018F930E94B61D0FB6F8947A
:10277000DEBF0FBECDBF812C912CCE0141965C01F6
:1027800040E6642E44E0742E5AE5E52E54E0F52E22
:10279000C40182959295907F9827807F98279F9378
:1027A0008F937F926F928091D4018F938091D30108
:1027B0008F930E94B61D8E010F5F1F4F0F900F90D9
:1027C0000F900F900F900F9007C0852DF801819307
:1027D0008F01EA15FB0529F1F89480E04ADC582EB8
:1027E0007894C82ED12C1F928F93FF92EF928091F4
:1027F000D4018F938091D3018F930E94B61DC6019F
:102800000E94A81D0F900F900F900F900F900F90A7
:10281000892BD9F68EE2F80181938F01EA15FB0529
:10282000D9F66091D3017091D40189E090E00E94C3
:10283000CE1D6091D3017091D401CE0101960E940A
:102840000A1EFFEF8F1A9F0A80E18816910409F093
:102850009FCFF89480E00DDC2F9A789463960FB6A2
:10286000F894DEBF0FBECDBFDF91CF911F910F91C6
:10287000FF90EF90DF90CF90BF90AF909F908F90A0
:102880007F906F905F9008956091D3017091D40113
:102890008BE394E00E94331E0E9451050EDC2F98BA
:1028A00087ECE7DB2F9AEBDB6091D3017091D401C9
:1028B00083E394E00E94331E2F982F9A08952F9857
:1028C00086E6D7DB2F9A2F9889E9D3DB2F9A8FE3FF
:1028D0009CE90197F1F700C00000089581110AC03A
:1028E0002F9A2E9A1CBC84B1897F84B92798269888
:1028F0002D9A08952D982F9A279A2F9A2E9A269AD4
:102900002E9A84B1866084B981E08DBD80E58CBD4E
:10291000D6CFE9ECF0E080818F778083A8ECB0E03F
:102920008C9180648C938091CE00808180688083BC
:10293000EBE9F1E014A2F3A3E2A3F1A3E0A308956D
:10294000809199018111FCCF08959091980181E0C7
:102950009F3108F480E008951F920F920FB60F92F6
:1029600011248F93EF93FF93E9ECF0E080818F7B4C
:102970008083E8ECF0E0808180648083109299018C
:10298000FF91EF918F910F900FBE0F901F901895B0
:102990001F920F920FB60F9211248F939F93EF9374
:1029A000FF93809198018823E1F0E0919601F091E6
:1029B000970181918093CE00F0939701E093960167
:1029C000E459F140D1F080919801815080939801B1
:1029D000FF91EF919F918F910F900FBE0F901F90DD
:1029E00018958091C9008F7D8093C9008091C9009E
:1029F00080648093C9002C98EBCF84E791E090939A
:102A0000970180939601DFCF909198019F3188F5CF
:102A100091E0909399019091C9009F7D9093C90096
:102A200090919801903200F5E0919401F091950118
:102A300080838091940190919501019690939501E6
:102A40008093940184599140A9F0809198018F5FFF
:102A5000809398019091980180919A01891720F4B0
:102A60008091980180939A018091C900806280933F
:102A7000C900089584E791E09093950180939401B3
:102A8000E4CF1F920F920FB60F9211242F938F93C2
:102A90009F93EF93FF938091C8009091CE0088712F
:102AA000D1F48091BF018032B1F0E091BB01F0918F
:102AB000BC0190838091BB019091BC0101969093E1
:102AC000BC018093BB018B5B914079F08091BF0189
:102AD0008F5F8093BF01FF91EF919F918F912F9115
:102AE0000F900FBE0F901F9018958BE991E0909377
:102AF000BC018093BB01EACF8091BF010895FC0126
:102B00009091BF019923E1F39091C9009F77909331
:102B1000C900A091BD01B091BE018C9180838091CC
:102B2000BD019091BE01019621E08B3B920781F09F
:102B30009093BE018093BD018091BF01815080932D
:102B4000BF018091C90080688093C90081E0089529
:102B50008BE991E0EDCFDDDEE4E7F1E0F3A3E2A362
:102B6000F1A3E0A314A215A208951092C900109237
:102B7000C8001092CA00529A811101C0089552985B
:102B800082E08093C80083E090E09093CD00809332
:102B9000CC0088E98093C90086E08093CA00DBCF2F
:102BA0008EBD82E08093E40103C00DB407FC04C035
:102BB0008091E4018111F9CF8EB508958FEF8EBD1C
:102BC00082E08093E40103C00DB407FC04C080914F
:102BD000E4018111F9CF8EB50895EF92FF920F9322
:102BE0001F93CF93DF93D82F142F052FF62EE72EA8
:102BF00087FD49C0C0E02E9AE1DF2E98DFDF82E03A
:102C00008093E30103C0DADF8F3F21F09091E3016D
:102C10009923C9F38091E301811110C06091D30120
:102C20007091D4018DE995E00E94331E8FEFDF9102
:102C3000CF911F910F91FF90EF9008958D2F806499
:102C4000AFDF8E2DADDF8F2DABDF802FA9DF812F82
:102C5000A7DFDD2389F1D83091F587E8A1DF84E192
:102C60008093E30104C0AADFC82F87FF04C08091CE
:102C7000E3018111F8CF8C2FDF91CF911F910F913C
:102C8000FF90EF90089540E050E0BA0187E3A5DFA0
:102C9000C82F823010F4DF77AECF6091D3017091EE
:102CA000D40184EA95E0DFD78C2FDF91CF911F917B
:102CB0000F91FF90EF90089585E972DFD0CF7EDF0E
:102CC000CECFCF92DF92EF92FF920F931F93CF93CD
:102CD000DF9300D000D0CDB7DEB7FCB482E58CBD69
:102CE0002E9A08EC10E06ADF01501109E1F72E98E6
:102CF000FCBC82E08093E40140E050E0BA0180E057
:102D00006CDF813021F140E050E0BA0180E065DF06
:102D10008130E9F06091D3017091D40186EF95E0A4
:102D2000A2D76091D3017091D4018BEA95E09BD733
:102D300081E02E9A0F900F900F900F90DF91CF911E
:102D40001F910F91FF90EF90DF90CF90089512E0C8
:102D50001093E4014AEA51E060E070E088E03DDF72
:102D60008983813029F140E050E0BA0189EA35DFFA
:102D7000823008F461C081E08093C2016091D30188
:102D80007091D40186EB95E06ED711E084E18093D9
:102D9000E30105C08091E301882309F4C2CF40E03C
:102DA00050E0BA01812F19DF8111F4CF80E0C1CF4B
:102DB000CE0101966C017E0195E0E90EF11C8601C1
:102DC000FDDEF80181938F01EE16FF06C9F78B81B6
:102DD000813009F0A6CF8C818A3A09F0A2CF6091A8
:102DE000D3017091D40181EE95E03DD784E18093C9
:102DF000E30104C08091E301882349F140E050E001
:102E000060E070E489EAE9DE8111F4CF40E050E04F
:102E1000BA018AE3E2DE811184CFD0DEF60181932C
:102E20006F01EE16FF06C9F7898186FD18C084E0A0
:102E30008093C20180E07DCF1093C2016091D301E5
:102E40007091D4018CEC95E00ED719EA9FCF609178
:102E5000D3017091D40184E690E0A0D662CF8CE0DB
:102E6000E7CF8F929F92AF92BF92CF92DF92EF9275
:102E7000FF920F931F93CF93DF93D82EC92E4A0151
:102E80005B01E9018091C20183FD07C089E0880CE4
:102E9000991CAA1CBB1C8A95D1F7B501A40181E13C
:102EA0009CDE811144C082E08093E30105C08091E3
:102EB000E301882309F439C081DE8E3FC1F72097F2
:102EC00009F450C0E12CF12C79DE9FEFE91AF90AE0
:102ED000CE15DF05C9F70C0F1D1FC017D10750F421
:102EE000ED2CFC2C6BDEF70181937F012196C0173E
:102EF000D107C0F3C115F2E0DF0730F45FDE2196A1
:102F0000C11582E0D807D1F7C0E02E9A57DE8C2F8A
:102F1000DF91CF911F910F91FF90EF90DF90CF90B5
:102F2000BF90AF909F908F900895C1E0EECF1F9219
:102F30008F93BF92AF929F928F9284E895E09F9378
:102F40008F938091D4018F938091D3018F930ED66C
:102F50008DB79EB70A960FB6F8949EBF0FBE8DBF71
:102F6000C1E0D3CF0115110509F0BACFC7CF0F9338
:102F70001F939B01AC0122503109410951098091F5
:102F8000EB019091EC01A091ED01B091EE0102975F
:102F9000A109B109281739074A075B07A8F460910E
:102FA000E70170E080E090E090D50091F70110918A
:102FB000F8012091F9013091FA01600F711F821F11
:102FC000931F1F910F91089560E070E0CB011F9156
:102FD0000F9108950F931F93CF93DF93FC011182FC
:102FE00010826481758186819781613071058105C8
:102FF000910521F10091EB011091EC012091ED017F
:103000003091EE016017710782079307B8F4EF0162
:103010006115710581059105B9F48091E501833051
:1030200011F110861186128613866091F30170915A
:10303000F4018091F5019091F6010BC081E0DF91E0
:10304000CF911F910F910895608771878287938731
:103050008EDF6C877D878E879F8780E0DF91CF91A1
:103060001F910F9108956091F3017091F401809187
:10307000F5019091F60160877187828793876115CA
:1030800071058105910589F2E3CFCF92DF92EF922E
:10309000FF920F931F93CF93DF93EC016A017B01A3
:1030A00002E010E02EEF31E0DCDE882351F083E017
:1030B000DF91CF911F910F91FF90EF90DF90CF9014
:1030C00008958881998185359A4A11F082E0F0CF80
:1030D00002E010E026E330E0B701A601CE01C1DE38
:1030E0008111E5CF888199818634914471F022E580
:1030F00030E0B701A601CE01B4DE8111D8CF81E066
:10310000288139812634314499F680E0D1CF0F935C
:103110001F93CF93DF9300D000D0CDB7DEB76230DE
:1031200071058105910508F442C00091EB011091F1
:10313000EC012091ED013091EE01601771078207DB
:103140009307A8F5DC01CB012091E5012230E1F1E4
:10315000233069F5AC014F775527FA01EE0FFF1FB9
:10316000EE0FFF1F37E0B695A795979587953A958F
:10317000D1F70091EF011091F0012091F101309110
:10318000F201AC01BD01400F511F621F731F04E02B
:1031900010E09F01CE01019664DE811108C0898193
:1031A0009A81AB81BC81BC01CD019F7004C061E0FC
:1031B00070E080E090E00F900F900F900F90DF9103
:1031C000CF911F910F910895AC015527FA01EE0F91
:1031D000FF1F892F9A2FAB2FBB270091EF01109172
:1031E000F0012091F1013091F201AC01BD01400FDD
:1031F000511F621F731F02E010E09F01CE01019674
:1032000030DE8111D4CF69817A8180E090E0D3CF24
:10321000CF92DF92EF92FF920F931F93CF93DF93A2
:10322000FC01C081D181219651F483E0DF91CF91DF
:103230001F910F91FF90EF90DF90CF900895FC01C8
:10324000448555856685778541155105610571056C
:1032500061F38C01CE018F709927892B09F041C051
:103260004F5F5F4F6F4F7F4F4487558766877787E4
:10327000408551856285738541155105610571054C
:10328000A9F18091E70190E001979E013295229586
:103290002F7023273F70232782239323892B09F53F
:1032A000CB01BA0134DF623071058105910538F137
:1032B000C090EB01D090EC01E090ED01F090EE01B8
:1032C0006C157D058E059F0508F0AFCFF80160876E
:1032D0007187828793874BDEF801648775878687BD
:1032E0009787F801D183C08380E0A0CF8091E90166
:1032F0009091EA01C817D90708F097CFF2CF81E083
:1033000095CFAF92BF92CF92DF92EF92FF920F9341
:103310001F93CF93DF937C01EB016A01DA018C915B
:10332000803231F4FA0131966F0181918032E1F3FC
:103330008F3209F4DFC0F7011482158216821782DA
:10334000D6018C91813208F4D9C00280F381E02D3E
:1033500050E2B52EB082B182B282B382B482B5821D
:10336000B682B782B086B186B28690E080E038E05F
:1033700021E0280FD601A80FB11D8C91813208F4ED
:10338000B7C08F3289F08E3209F499C0931760F478
:103390004FE9480F4A3108F48052DF01A90FB11DEF
:1033A0008C939F5F822FE4CF80E0C20ED11C838775
:1033B000C70110DEA82E882309F43FC088C0888189
:1033C000882309F487C04B8543FD33C0D70112968B
:1033D000ED91FC91139790E0208130E082179307E4
:1033E00041F599818181981324C09A818281981333
:1033F00020C09B81838198131CC09C818481981379
:1034000018C09D818581981314C09E818681981370
:1034100010C09F81878198130CC098858085981370
:1034200008C099858185981304C09A85828598176C
:1034300051F1C701EDDE811149C0F70120813181D1
:103440002F703327220F331F22953295307F32277A
:10345000207F3227448555856685778500E210E018
:10346000CE01FFDC882309F4AACFAA24A3948A2DD5
:10347000DF91CF911F910F91FF90EF90DF90CF9050
:10348000BF90AF90089583858111F1CF44FF2AC08A
:103490008C899D89A0E0B0E0DC01992788274A8DBE
:1034A0005B8D60E070E0482B592B6A2B7B2BD7019A
:1034B00014964D935D936D937C9317974BCF383053
:1034C00009F072CF98E03BE0822F52CFA82EB3E0F4
:1034D000AB12CDCFD7011296ED91FC911397838556
:1034E000811103C034E0A32EC2CF83E0A82EBFCF4A
:1034F00081E05BCFBFEFCB1ADB0A1DCFC7016ADDCE
:10350000A82E1882B4CF4F925F926F927F928F92C3
:103510009F92AF92BF92CF92DF92EF92FF920F9362
:103520001F93CF93DF93CDB7DEB7A4970FB6F89470
:10353000DEBF0FBECDBF9091D6019D7F9093D60187
:103540001092E801811118C080E0A4960FB6F8949B
:10355000DEBF0FBECDBFDF91CF911F910F91FF90C6
:10356000EF90DF90CF90BF90AF909F908F907F9023
:103570006F905F904F900895A4DB80FF09C0609129
:10358000D3017091D4018FEA96E06DD382E0DDCF54
:1035900040E050E0BA01CE01019677DD813009F4B8
:1035A000B9C0812C912C5401833009F4F2C08823D6
:1035B00049F06091D3017091D40182E896E053D331
:1035C00087E0C3CF04E210E02DE030E0B501A401B4
:1035D000CE01019646DC8111E5C02A853B85211587
:1035E000310509F4B6C040E050E06C8170E080E045
:1035F00090E06BD22B013C018A819B81A0E0B0E07E
:10360000880E991EAA1EBB1E8092EF019092F001B7
:10361000A092F101B092F201E981E093E701CD803F
:10362000DE80D092EA01C092E9016F817885611550
:10363000710509F489C0AB0160E070E0D294C294D6
:103640002FE0C222CD24D222CD24E12CF12C8A01FC
:103650009B01081B190B2A0B3B0BD901C8018419CC
:103660009509A609B709BC01CD016C197D098E0920
:103670009F092E2F30E040E050E040D2DA01C9012E
:103680000296A11DB11D8093EB019093EC01A093D4
:10369000ED01B093EE01873F1FE09107A105B10551
:1036A00008F45CC0873F9F4FA105B10508F45FC0D7
:1036B00083E08093E50188A199A1AAA1BBA1809391
:1036C000F3019093F401A093F501B093F601C80CB7
:1036D000D91CEA1CFB1C4C0C5D1C6E1C7F1C409210
:1036E000F7015092F8016092F9017092FA0110927C
:1036F000E60181E08093E8016091D3017091D401EB
:103700008CE496E0B0D28091D60182608093D6019D
:1037100080E01BCF00E110E02EEB31E040E050E014
:10372000BA01CE0101969DDB811133C08D818823C2
:1037300009F43FCF89849A84AB84BC84B501A40189
:10374000CE010196A2DC30CF4C895D896E897F89DC
:1037500075CF288D398D4A8D5B8D47CF6091D30110
:103760007091D40181E696E07ED287E0EECE82E0D1
:103770008093E501D301C201880D991DAA1DBB1DCF
:103780008093F3019093F401A093F501B093F601B7
:103790009ECF6091D3017091D40184EA96E063D208
:1037A00081E0D3CE6091D3017091D40184E796E09B
:1037B0005AD281E0CACECF93DF93CDB7DEB7EC9774
:1037C0000FB6F894DEBF0FBECDBFAC019091E801FB
:1037D00091110AC086E0EC960FB6F894DEBF0FBEDA
:1037E000CDBFDF91CF9108951092E601CE01C19631
:1037F0009CA38BA3BE016F5F7F4F409782DD811139
:10380000EACF8981811102C083E0E5CF8C8584FDF8
:10381000FBCF8D899E89A0E0B0E0DC019927882745
:103820004B8D5C8D60E070E0842B952BA62BB72B25
:103830008093030290930402A0930502B0930602C2
:103840008D8D9E8DAF8DB8A18093FF019093000266
:10385000A0930102B09302021092FB011092FC01AE
:103860001092FD011092FE0181E08093E60180E05C
:10387000B2CF6F927F928F929F92AF92BF92CF9270
:10388000DF92EF92FF920F931F93CF93DF933C0150
:103890007B015A01FA01118210828091E80188238C
:1038A00009F4FCC08091E60180FFB0C08091FB016B
:1038B0009091FC01A091FD01B091FE014091FF01AA
:1038C000509100026091010270910202481B590B55
:1038D0006A0B7B0B870120E030E04017510762073D
:1038E000730708F4EEC0E114F10409F4ECC06301BD
:1038F000812C32E0932E48C040910B0250910C0273
:1039000060910D0270910E029C013170E401C21BA6
:10391000D30BEC16FD0608F4E7016114710409F4F9
:10392000A9C0FC2DED2D8E018F2F9E2F9ADA8111CB
:10393000AAC08091FB019091FC01A091FD01B09182
:10394000FE018C0F9D1FA11DB11D8093FB01909363
:10395000FC01A093FD01B093FE01CC0EDD1EEC1A1C
:10396000FD0AF50180819181C80FD91FD183C083E1
:10397000E114F10409F4A7C08091FB019091FC01CE
:10398000A091FD01B091FE01AC01BD01517066270F
:103990007727452B462B472B09F0AECFC091E70187
:1039A000C150AC01BD0129E07695679557954795C3
:1039B0002A95D1F7C42309F440C040910702309101
:1039C00008022091090290910A02642F732F822F1E
:1039D000CEDA611571058105910509F454C0AB017A
:1039E000BC014C0F511D611D711D40930B02509382
:1039F0000C0260930D0270930E028091FB01909176
:103A0000FC01A091FD01B091FE017ECF6091D30138
:103A10007091D4018BE196E026D185E0DF91CF91C2
:103A20001F910F91FF90EF90DF90CF90BF90AF90DC
:103A30009F908F907F906F900895892B8A2B8B2B6E
:103A4000B1F560910302709104028091050290919A
:103A500006026230710581059105A8F060930702A6
:103A6000709308028093090290930A02462F372F21
:103A7000282FABCFF0E0E0E08E018F2F9E2FF1D901
:103A8000882309F456CF1092E6016091D30170911A
:103A9000D40185E096E0E7D081E0C0CF6091D3010A
:103AA0007091D40183E396E0DED086E0B7CF6091D9
:103AB0000702709108028091090290910A0227DBA7
:103AC000C8CF7A0110CF80E0A9CFEE27FF27AA2721
:103AD000BB2708C0A20FB31FE41FF51F220F331F1F
:103AE000441F551F969587957795679598F3704075
:103AF000A9F7009799F7BD01CF010895A1E21A2E09
:103B0000AA1BBB1BFD010DC0AA1FBB1FEE1FFF1F81
:103B1000A217B307E407F50720F0A21BB30BE40BD1
:103B2000F50B661F771F881F991F1A9469F7609518
:103B30007095809590959B01AC01BD01CF010895D2
:103B4000EE0FFF1F0590F491E02D0994803209F0EB
:103B5000911186C280528F55E0F708959111089512
:103B600081568A5108F4805285580895A0E0B0E04B
:103B7000EBEBFDE105C30F811885F80183818860B7
:103B80008383AE01455F5F4F69857A85C80195D013
:103B9000F8012381277F2383E4E00EC30F931F9353
:103BA000CF93DF93FB01238121FD03C08FEF9FEFB4
:103BB0002CC022FF16C046815781248135814217CF
:103BC000530744F4A081B1819D012F5F3F4F3183A2
:103BD00020838C93268137812F5F3F4F3783268345
:103BE00014C08B01EC01FB010084F185E02D0995E7
:103BF000892BE1F6D80116968D919C911797019625
:103C000017969C938E931697CE01DF91CF911F91BB
:103C10000F910895EF92FF920F931F93CF93DF932D
:103C2000DB0113962C9121FF18C08B017C01D0E0A1
:103C3000C0E0F70181917F01882361F0D8011896D7
:103C4000ED91FC911997B8010995892B91F3DFEF5C
:103C5000CFEFEFCF8D2F9C2F02C08FEF9FEFCDB70F
:103C6000DEB7E6E0A7C2EF92FF920F931F93CF93C8
:103C7000DF938C017B01DB0113968C9181FF17C0D0
:103C8000D0E0C0E0F8018491882371F0D701189644
:103C9000ED91FC911997B7010995892B11F0DFEF90
:103CA000CFEF0F5F1F4FEECF8D2F9C2F02C08FEFF6
:103CB0009FEFCDB7DEB7E6E07DC2ABE0B0E0E2E675
:103CC000FEE150C26C017B018A01FC011782168261
:103CD000838181FFC0C1CE0101963C01F601938131
:103CE000F70193FD859193FF81917F01882309F46A
:103CF000AEC1853239F493FD859193FF81917F01A7
:103D0000853221F4B60190E049DFE8CF912C212CD7
:103D1000312CFFE1F315E0F08B3279F038F480328A
:103D200079F08332A9F4232D206110C08D3259F02F
:103D3000803371F4232D216009C0832D8260382ED9
:103D4000E32DE46022C0F32DF86025C0322E27C099
:103D500037FC2DC020ED280F2A3088F436FE06C02F
:103D6000892D6AE0F6D1922E980E19C0822D6AE054
:103D7000F0D1222E280E832D8062382E10C08E3274
:103D800031F436FC64C1E32DE0643E2E08C08C366D
:103D900021F4F32DF0683F2E02C0883641F4F7017C
:103DA00093FD859193FF81917F018111B2CF982F6F
:103DB0009F7D9554933028F40C5F1F4F2FE3298388
:103DC0000DC0833631F0833771F0833509F055C06B
:103DD00020C0F801808189830E5F1F4F882483945F
:103DE000912C530112C02801F2E04F0E511CF80132
:103DF000A080B18036FE03C0692D70E002C06FEF75
:103E00007FEFC5013BD14C018201F32DFF773F2E9F
:103E100015C0280122E0420E511CF801A080B1809B
:103E200036FE03C0692D70E002C06FEF7FEFC50161
:103E30001AD14C01F32DF0683F2E820133FC19C0DA
:103E4000822D90E088169906A0F4B60180E290E0F9
:103E5000A5DE2A94F5CFF50137FC859137FE8191D7
:103E60005F01B60190E09ADE21102A9421E0821AC7
:103E700091088114910479F7E1C0843611F08936F4
:103E800039F5F80137FE07C0608171818281938125
:103E90000C5F1F4F08C060817181072E000C880BDA
:103EA000990B0E5F1F4FF32DFF763F2E97FF09C032
:103EB00090958095709561957F4F8F4F9F4FF068DB
:103EC0003F2E2AE030E0A301E4D0882E861844C0BB
:103ED000853731F4232D2F7EB22E2AE030E025C025
:103EE000932D997FB92E8F36C1F018F4883579F06B
:103EF000AEC0803719F0883721F0A9C0E92FE06102
:103F0000BE2EB4FE0DC0FB2DF460BF2E09C034FEE2
:103F10000AC0292F2660B22E06C028E030E005C076
:103F200020E130E002C020E132E0F801B7FE07C036
:103F300060817181828193810C5F1F4F06C0608117
:103F4000718180E090E00E5F1F4FA301A2D0882E08
:103F50008618FB2DFF773F2E36FE0DC0232D2E7FBA
:103F6000A22E891458F434FE0BC032FC09C0832DF4
:103F70008E7EA82E05C0B82CA32C03C0B82C01C07F
:103F8000B92CA4FE0FC0FE01E80DF11D8081803325
:103F900021F49A2D997EA92E09C0A2FE06C0B394E1
:103FA000B39404C08A2D867809F0B394A3FC10C0A2
:103FB000A0FE06C0B21480F4280C922C9B180DC0F1
:103FC000B21458F4B60180E290E0E8DDB394F8CF83
:103FD000B21418F42B1802C0982C212CA4FE0FC088
:103FE000B60180E390E0DADDA2FE16C0A1FC03C0BA
:103FF00088E790E002C088E590E0B6010CC08A2D09
:10400000867851F0A1FE02C08BE201C080E2A7FCDD
:104010008DE2B60190E0C2DD891430F4B60180E390
:1040200090E0BCDD9A94F8CF8A94F301E80DF11D7D
:104030008081B60190E0B2DD8110F6CF222009F434
:104040004DCEB60180E290E0A9DD2A94F7CFF601CB
:104050008681978102C08FEF9FEF2B96E2E19EC091
:10406000992788270895FC01059061507040011040
:10407000D8F7809590958E0F9F1F0895FC01615091
:10408000704001900110D8F7809590958E0F9F1F7A
:104090000895FA01AA27283061F1203191F1E894BE
:1040A0006F936E7F6E5F7F4F8F4F9F4FAF4FB1E02B
:1040B00040D0B4E03ED0670F781F891F9A1FA11D22
:1040C000680F791F8A1F911DA11D6A0F711D811D27
:1040D000911DA11D22D009F468943F91062E000C79
:1040E0003019000C000C3019305D3193CEF6CF0141
:1040F0000895462F4770405D4193B3E00FD0C9F754
:10410000F6CF462F4F70405D4A3318F0495D31FDC0
:104110004052419302D0A9F7EACFB4E0A695979513
:10412000879577956795BA95C9F7009761057105E9
:1041300008959B01AC010A2E069457954795379533
:104140002795BA95C9F7620F731F841F951FA01D8D
:104150000895002480FD060E660F11F08695D1F7B4
:10416000802D08952F923F924F925F926F927F928F
:104170008F929F92AF92BF92CF92DF92EF92FF9277
:104180000F931F93CF93DF93CDB7DEB7CA1BDB0B23
:104190000FB6F894DEBF0FBECDBF09942A883988C8
:1041A00048885F846E847D848C849B84AA84B984CF
:1041B000C884DF80EE80FD800C811B81AA81B981DB
:1041C000CE0FD11D0FB6F894DEBF0FBECDBFED01EF
:0641D0000895F894FFCFF2
:1041D60000831000000104100000018208000001A5
:1041E60000000000000000000000002F66706761FC
:0641F6002E62696E00005C
:00000001FF
